:100000000C94EF050C9436060C9436060C94112FC4
:100010000C9436060C9436060C9436060C94360670
:100020000C9436060C9436060C940C210C94C11FCB
:100030000C949F220C9436060C9436060C943606CB
:100040000C9436060C9436060C9436060C94360640
:100050000C9436060C9452220C9436060C943606F8
:100060000C9436060C9436060C9436060C94360620
:100070000C9436060C9436060C9436060C94360610
:100080000C9436060C9436060C9436060C94360600
:100090000C9436060C9436060C9436060C943606F0
:1000A0000C9436060C9436060C943606860B890B97
:1000B000A50BB20BB90BD90BDC0B100C2D0CCA0C19
:1000C000CA0C380C3A0C3E0C620C830C860C890C62
:1000D000AB0CCB11CB11FE11FE11711290139013CA
:1000E00090138F12031314131413B717B717CA17EB
:1000F000CA17C017CA17CA17CA17B717B717C5172D
:10010000CA17CA17C5179626BD266628BD266628B3
:1001100009272C2766282128312800DA0281FFD9F7
:10012000F1DB20A4A62EAF00A0C000A1C800AED570
:1001300080A81FD300408D1420000004643214787E
:100140003C1E20202020005343522000202020204D
:1001500000434150200020202020004E554D20001B
:100160000A00556E646566696E65640041646A756F
:1001700073740A004C6F7765720A00526169736587
:100180000A0044656661756C740A004C6179657299
:100190003A200020000A000A00959600B5B60097A4
:1001A0009800B7B800808182838485868788898A91
:1001B0008B8C8D8E8F9091929394A0A1A2A3A4A5D5
:1001C000A6A7A8A9AAABACADAEAFB0B1B2B3B4C04C
:1001D000C1C2C3C4C5C6C7C8C9CACBCCCDCECFD097
:1001E000D1D2D3D4000000000000000000000000C5
:1001F00000000000000000000000000000000000FF
:100200000000000000000000007E0F00D4FFFFFF90
:10021000C70000007800000000000000002A2B2822
:1002200000000000000000000000000000000000CE
:1002300029000000002C1E342021222434262725EA
:100240002E362D3738271E1F202122232425263322
:1002500033362E37381F0405060708090A0B0C0D24
:100260000E0F101112131415161718191A1B1C1D36
:100270002F3130232D350405060708090A0B0C0D14
:100280000E0F101112131415161718191A1B1C1D16
:100290002F3130354C00AF00AE2B0014001A00088F
:1002A00000150017000000E0000400160007000918
:1002B000000A000000E1001D001B000600190005F7
:1002C00000000003512900E200E300A55D105F2C4F
:1002D000002A00130012000C0018001C000000345B
:1002E0000033000F000E000D000B00000028003846
:1002F00000370036001000110000004F005200517E
:10030000005000A65D115F2C0035021E021F022066
:100310000221022202000001003A003B003C003DA5
:10032000003E00000039004000410042004300440C
:1003300000000001000100010001000100010001B6
:1003400000010027022602250224022302000031B8
:100350000230022F022E022D023F00000001004D4C
:10036000004A000100010045000000AE00A900AAFB
:1003700000AB0001000100010035001E001F00203D
:100380000021002200000001003A003B003C003D3B
:10039000003E00000039004000410042004300449C
:1003A0000000000100010001000100010001000146
:1003B000004C002700260025002400230000003107
:1003C0000030002F002E002D003F00000001004BE8
:1003D000004E000100010045000000AE00A900AA87
:1003E00000AB000100010001003A003B003C003D71
:1003F000003E003F0000000100005CA85D0100011C
:1004000000010000000100010001000100010013D3
:100410005C00000100010001000100010001000179
:100420000045004400430042004100400000004CF1
:1004300000010001000100010001000000C95CC7CB
:100440005CC55CC25C01000A5C0000CA5CC85CC69A
:100450005CC35C01000100010005010980A1018568
:100460000319012AB700150126B7009501751081FF
:1004700000C0050C0901A101850419012AA002157B
:100480000126A002950175108100C00660FF096178
:10049000A1010962150026FF009520750881020957
:1004A00063150026FF00952075089102C00501091B
:1004B00006A101050719E029E71500250195087532
:1004C0000181029501750881010507190029FF15B1
:1004D0000026FF0095067508810005081901290509
:1004E000950575019102950175039101C009025BA3
:1004F00000030100A0FA0904000001030101000942
:1005000021110100012240000705810308000A09AA
:100510000401000203000000092111010001222250
:1005200000070582032000010705030320000109DD
:100530000402000103000000092111010001223220
:10054000000705840320000A1201000200000008D1
:100550006532040001000102000122034800650029
:100560006C0069007800200072006500760033009E
:100570002000340072006F00770073000000140345
:10058000790075007300680061006B006F00620005
:100590006F000000040309040000000000003E5B3F
:1005A0004F5B3E003E6B4F6B3E001C3E7C3E1C0092
:1005B000183C7E3C18001C577D571C001C5E7F5E5B
:1005C0001C0000183C180000FFE7C3E7FF000018FC
:1005D00024180000FFE7DBE7FF0030483A060E0072
:1005E000262979292600407F05050700407F05253B
:1005F0003F005A3CE73C5A007F3E1C1C0800081C88
:100600001C3E7F0014227F2214005F5F005F5F00AA
:1006100006097F017F00006689956A00606060605E
:10062000600094A2FFA2940008047E040800102039
:100630007E20100008082A1C0800081C2A08080050
:100640001E10101010000C1E0C1E0C0030383E380E
:100650003000060E3E0E0600000000000000000004
:100660005F000000000700070000147F147F1400E3
:10067000242A7F2A12002313086462003649562078
:100680005000000807030000001C22410000004148
:10069000221C00002A1C7F1C2A0008083E080800B3
:1006A0000080703000000808080808000000606042
:1006B00000002010080402003E5149453E0000425F
:1006C0007F4000007249494946002141494D3300AD
:1006D0001814127F10002745454539003C4A494906
:1006E0003100412111090700364949493600464980
:1006F00049291E00000014000000004034000000E2
:10070000000814224100141414141400004122148F
:1007100008000201590906003E415D594E007C1255
:1007200011127C007F49494936003E414141220077
:100730007F4141413E007F49494941007F09090904
:1007400001003E41415173007F0808087F000041CD
:100750007F4100002040413F01007F0814224100FA
:100760007F40404040007F021C027F007F04081051
:100770007F003E4141413E007F09090906003E419C
:1007800051215E007F091929460026494949320056
:1007900003017F0103003F4040403F001F204020F5
:1007A0001F003F4038403F006314081463000304F7
:1007B000780403006159494D4300007F41414100E5
:1007C000020408102000004141417F0004020102A0
:1007D000040040404040400000030708000020544F
:1007E000547840007F28444438003844444428006A
:1007F000384444287F0038545454180000087E09B7
:10080000020018A4A49C78007F0804047800004427
:100810007D4000002040403D00007F102844000043
:1008200000417F4000007C04780478007C080404C8
:100830007800384444443800FC1824241800182454
:100840002418FC007C080404080048545454240074
:1008500004043F4424003C4040207C001C204020F5
:100860001C003C4030403C004428102844004C9080
:1008700090907C004464544C4400000836410000D1
:100880000000770000000041360800000201020469
:1008900002003C2623263C0003071F7FFFFFFEF8D3
:1008A000F0C020F8FEFFFE79271F7FFFFFFEF8F063
:1008B000C020F8FEFFFF7F3F3F7FFFFEF8F0C00043
:1008C000000000FFFFFFFFFFFF000000000000002E
:1008D000FF7F7F7FBFBFC0C0C0E0E0E0E0F0F0F08E
:1008E000F878787C3C3CFEFEFEFFFFFF0000000035
:1008F0000000000000008080BFBFDFDFEFEF0003DB
:10090000071F7FFFFFFFFEF8E0C0E0F8FEFFFFFFDC
:100910007F1F07030000E0F0F0F0E0ECEEF7F3706B
:1009200020007C7C7C7E007E7E7E7F7F7F0000803E
:10093000C0E07E5B4F5BFEC00000C000DCD7DEDEA7
:10094000DED7DC00C0000000000000000000000056
:10095000000000000000000000000000C1F3CFBF55
:100960007FFFFFFCFBE7810000000080E3CF3FFF3B
:10097000FFFFFCFBE7810000000081E7FFFFFFFFB6
:100980003C0000FFFFFFFFFFFFF8F8FC7C7E7E3E8F
:10099000FEFFFFFFFFFFF7F7F7FBFB7D7D7DBEBE90
:1009A000BEDFDFE0E000FFFFFFFFFFFF00FCFC7C9D
:1009B0007E7E3E3E1F1F1F0FFFFFFFFFFFFF000059
:1009C00000000081E7FFFFFFFFFFFFFFFFFFE78160
:1009D0000000000000000F1F3F7F7F7F7F7F3F1ED2
:1009E0000C001F1F1F3F003F3F3F7F7F7F00307B7A
:1009F0007F7830202030787F3B0003000F7F0F0F7F
:100A00000F7F0F0003000000000000000000000046
:100A1000000000000000000060707C7F7F7F7F1F6F
:100A20000601030F3F7F7F7E7C7C7E7F7F7F1F06DA
:100A300001070F3F7F7F7E7C7C7E7F7F3F0F03001F
:100A40000000007F7F7F7F7F7F00000000000000AC
:100A50007F7F7F7F7F7F7D7D3D3E1E1F1F1F0F0F8E
:100A60000707070303007F7F7F7F7F7F7C7C7C7C81
:100A70007C7C7C7C7C7C7C007F7F7F7F7F7F0040D8
:100A800070787E7F7F7F3F0F0301030F3F7F7F7F63
:100A90007E787040000000000000000000000000B0
:100AA0000000000000000000000000000000000046
:100AB0000000000000000000000000000000000036
:100AC0000000000000000000000000000000000026
:100AD0000000000000000000FFAA7F554000010157
:100AE00001010101010101020202020202020202ED
:100AF00003030303030303030404040404040405BD
:100B00000505050506060606060707070707080880
:100B10000808090909090A0A0A0B0B0B0C0C0C0D31
:100B20000D0D0E0E0E0F0F0F1010111111121213CA
:100B3000131414151516161717181819191A1A1B45
:100B40001B1C1D1D1E1E1F202021222223242425A4
:100B50002626272829292A2B2C2D2D2E2F303132DD
:100B600032333435363738393A3B3C3D3E3F4041ED
:100B700042434445464748494A4C4D4E4F505153D5
:100B800054555658595A5B5D5E5F6162646566688C
:100B9000696B6C6D6F7072737577787A7B7D7E8010
:100BA00082838587888A8C8E8F91939596989A9C5C
:100BB0009EA0A2A3A5A7A9ABADAFB1B3B5B7BABC70
:100BC000BEC0C2C4C6C9CBCDCFD1D4D6D8DBDDDF41
:100BD000E2E4E7E9EBEEF0F3F5F8FAFDFF001124AB
:100BE0001FBECFEFDAE0DEBFCDBF04B603FE27C0E5
:100BF0008091B5059091B605A091B705B091B80563
:100C00008730904BA740B04BD1F41092B5051092AD
:100C1000B6051092B7051092B80514BE84B7877F49
:100C200084BF0FB6F894A895809160008861809386
:100C30006000109260000FBEE0E0F8E3099511E05B
:100C4000A0E0B1E0EEE7F8E602C005900D92A43F07
:100C5000B107D9F725E0A4EFB1E001C01D92A53B93
:100C6000B207E1F70E9438060C943D340C94000062
:100C7000CF93DF93CDB7DEB7E2970FB6F894DEBF20
:100C80000FBECDBF84B7877F84BF0FB6F894A895F9
:100C900080916000886180936000109260000FBEB8
:100CA00090E080E80FB6F894809361009093610023
:100CB0000FBE85B7806885BF85B7806885BF8EE623
:100CC0009AE19093F5018093F4010E9405200E941F
:100CD000AB208091E20084608093E2007894809160
:100CE000FA028823A1F01091E9001F709091EC00A6
:100CF000892F817090FD80E8182B1092E900809177
:100D0000E80083FD0E94AE251F701093E90082E089
:100D100084BD93E095BD9AEF97BD80936E001092CD
:100D2000F6011092F7011092F8011092F9010E9459
:100D3000B228811102C00E94A32822982A9A579AA9
:100D40005F9825E02A95F1F7000083B182FB8827A0
:100D500080F957985F9A30EA3A95F1F7809300014D
:100D600080910001882321F010925C0189E103C089
:100D700089E180935C0180935D010E94731C811165
:100D80000E94CB2E8091000180910001882311F0F8
:100D900090E001C094E09093030284E0891B80936B
:100DA000020205E711E0D8018D918D018F3F11F00E
:100DB0000E940B1DB1E009371B07A9F70DE711E0F1
:100DC000F80181918F018F3F11F00E940B1DF1E01E
:100DD00004381F07A9F788E0EEE3F2E0DF01282FCF
:100DE0001D922A95E9F7EAEFF1E0DF011D928A955D
:100DF000E9F70E943316811102C00E943E1682E07C
:100E000090E00E94AD30809335020E9422169093AC
:100E10000F0280930E020E946E1DEFE3FCE93197F2
:100E2000F1F700C000000E946E1D80913E0280FF1D
:100E300008C06FEF7FEF80E090E00E94DF300E94FB
:100E4000412283E090E00E94AD300E941B1A0E9474
:100E5000731C811102C00E94CE2E1092300280E8D5
:100E6000809305030E945F2D6DE070E08DE291E0BC
:100E70000E945925892B09F043C08091300263E01C
:100E800070E081FD3AC08AE291E00E945925892BE9
:100E9000B9F56DE070E08AE191E00E945925892B57
:100EA00079F50E948722DC01CB01805A9541AF4F32
:100EB000BF4F8093D6029093D702A093D802B093ED
:100EC000D902E8E0F3E080E092E0DF019C011D92AE
:100ED00021503040E1F7F0930F05E0930E058FEFBE
:100EE0009FEF909307038093060381E08093DB02DA
:100EF0008093DA021092310203C087E291E0C5CFFD
:100F000080910402811138C00E943316811104C0FF
:100F10000E943E160E94BE2B88E090E00E94B530F1
:100F20006093190570931A0580931B0590931C0517
:100F3000809118058360809318056E7F71F40E947C
:100F4000BE2B88E090E00E94B53060931905709345
:100F50001A0580931B0590931C050E94232A0E946A
:100F6000D1288091190580FF04C060E086950E9419
:100F7000572B81E08093040226982E9A25982D9A6B
:100F800083B186FB882780F91D9B02C092E001C0D7
:100F900090E0892B80930D029091000181E09827C9
:100FA00090930C02891B8093050281E091E090935D
:100FB000E2028093E10210E4612ECE0101967C01F1
:100FC0001E019BE0290E311C8091FA02853009F048
:100FD00045C000E112E18091FA02853009F03AC083
:100FE0008091FA02843029F10E9415241092E502C2
:100FF000A8E1B0E00FB6F894A895A09360000FBEEA
:101000006092600083B7817F846083BF83B7816013
:1010100083BF7894889583B78E7F83BF0FB6F8948B
:10102000A8958091600088618093600010926000B4
:101030000FBE8091F902882309F4CDCF0E946E1D66
:10104000EEE3F2E081918111CDC4B2E0E634FB071A
:10105000C9F7C1CF0E941F1A0E941B230E946E1D58
:10106000C82E81110E948722EEE3F2E0FEA7EDA7D1
:10107000E6E3F2E0AEE3B2E000E010E0902EAD90E7
:1010800081918A2549F1B12CDD24D394982F9D219B
:10109000F1F00E94731C882399F0B9A29AA2AD20A6
:1010A00081E009F480E08BA30E9493228160782F75
:1010B0009DA38CA349A15AA16BA18DA10E94110DE2
:1010C000F801EA5CFD4F8081D826D0821AC0B39423
:1010D000DD0C27E0B212DACF0F5F1F4F0830110589
:1010E00069F68FEF8EA38FA318A60E9493228160CA
:1010F000782F9AA789A74EA15FA168A58AA50E940B
:10110000110D80911705882309F483C0809116057D
:10111000E0911905E695E81BE0931205823059F439
:10112000F0E0E15CFE4FE4910E2F10E0B8EDAB2E45
:10113000B9E2BB2E1FC0853061F4E695F0E0E45CB7
:10114000FE4FE4910E2F10E0AFE3AA2EA9E2BA2ED3
:1011500011C0853149F4EAE3F1E005911491F8E911
:10116000AF2EF9E2BF2E06C000ED17E0E4E8AE2E88
:10117000E8E2BE2E80911305882361F010921305DA
:101180000E94651D9093110580931005109215051E
:10119000109214050E94651DE0911005F091110553
:1011A0009C012E1B3F0B2F3F3F4798F520910802D3
:1011B0002223B1F01092080220910602309107021A
:1011C000821B930B8F3F9F4758F4205D3A48309322
:1011D0000702209306028091180588608093180505
:1011E00080901405909015050E0F1F1F1093110588
:1011F0000093100580E195E0F501099580911405B3
:1012000090911505892B29F4892819F081E08093A4
:10121000080280910D02E82FEE0FEE0FE0930D0211
:1012200083B186FB882780F98BA71CA61D9B03C072
:1012300082E090E002C080E090E02BA53CA5822BEC
:10124000932B8E2B80930D0210910C028F70E82F40
:10125000F0E0EC57FE4F908180910B02890F809354
:101260000B0284308CF0E12FF0E0E75FFD4F8081CE
:101270008F5F8083111102C08BE403C0113031F401
:1012800082E50E94501A02C0D12C02C0DD24D39402
:1012900080910B028D3F94F4E12FF0E0E75FFD4F6A
:1012A000808181508083111102C08EE403C011300F
:1012B00019F481E50E94501ADD24D39480910B0229
:1012C000082E000C990B64E070E00E9401318093BD
:1012D0000B02D1100E9420168091DB02882309F4B2
:1012E000BEC180913202909133020E947822C2974F
:1012F00008F4B1C00E94932290933302809332028B
:1013000088E093E090930F0580930E050E94731C74
:10131000882309F46BC080910E0282FD0BC089E91D
:1013200091E00E941C2587E991E00E941C258CE930
:1013300091E00AC08FE991E00E941C2585E991E0C7
:101340000E941C2582EA91E00E941C2583E991E01D
:101350000E941C258BE891E00E941C2580910403CB
:101360000E94B90D813081F038F0823041F0833035
:1013700071F48CE691E005C082E891E002C08BE751
:1013800091E00E941C250AC084E791E0FACF82E632
:1013900091E00E941C2581E00E94552480E691E0A6
:1013A0000E941C250E941B2381FB002700F982FB61
:1013B000112710F980FF03C08BE591E002C086E59C
:1013C00091E00E941C25002319F081E591E002C004
:1013D0008CE491E00E941C25112319F087E491E030
:1013E00002C082E491E00E941C2535C085EA91E0AC
:1013F0000E941C258091190580FF2DC00E941B2A88
:10140000382F80911C0521E1622F0E94F5301F9238
:101410008F9380911B050E94F5301F928F938091CE
:101420001A058695869586951F928F931F923F93F6
:1014300081E691E09F938F931F928EE18F93FF92AD
:10144000EF920E944531C7010E942A250FB6F894F9
:10145000DEBF0FBECDBF8091DB02882309F4E4C05C
:1014600020910603309107032115310509F4DCC0F2
:10147000809131028111D8C0482E512CAA24A39406
:10148000B12C082E02C0AA0CBB1C0A94E2F7A901D9
:101490004A215B21452B11F48F5FEECF90913002F2
:1014A000920165E0220F331F6A95E1F790FD12C0AB
:1014B0008295880F807680930F01220F232F221FA1
:1014C000330B319520931201815E809310011092AD
:1014D000130112C045E0369527954A95E1F7220F92
:1014E000220F220F20930F0110921201295F2093E7
:1014F000100183E08093130124E630E047E050E0E0
:101500006DE071E088E70E94162E892B09F08CC0EF
:101510008091300280FD23C0C20125E0880F991F11
:101520002A95E1F7AC01485F5C4F04E610E020E249
:1015300030E060E488E70E943D2E892B09F074C0FA
:101540000E942F24A094B0948091060390910703E9
:10155000A822B922B0920703A092060365C080E2D8
:10156000E0E1F2E0DF011D928A95E9F785E0440CA5
:10157000551C8A95E1F7E8E9F1E0FAABE9AB64E9DB
:1015800071E0A9A9BAA98D91BAABA9ABFB01919160
:10159000BF01A201490F511D485F5C4F90E0805F81
:1015A0009D4FFC0107E09F01281B390B8824839481
:1015B00001C0880C2A95EAF758AB4FA7912CAFA52C
:1015C000B8A91D91B8ABAFA71821202F29192770F2
:1015D000722E022E000C330BB12F01C0BB0F7A9478
:1015E000EAF77B2E3195219531092770332701C009
:1015F00016952A95EAF7712A1081712A70829394C0
:1016000028E09212DCCF015031960F3F61F689A994
:101610009AA98C59914009F0B4CF04E610E020E279
:1016200030E040E152E085CF8091DA028823B9F0C2
:101630000E9487220091D6021091D7022091D802F1
:101640003091D902DC01CB01801B910BA20BB30BB3
:101650008F3F9F4FAF4FBF4710F40E941524C1101A
:1016600001C0D1100E942F240E941B2390913402AC
:10167000891721F00E941B23809334028091FA0283
:10168000843009F0A1CC83E08093E9008091E800E8
:1016900082FF9ACC8091E80085FF22C00E9424201E
:1016A00081111CC000E210E09E012F5F3F4F6901D5
:1016B00008C08091F100D6018D936D010150110990
:1016C00069F08091E80085FDF4CF8091E8008B7788
:1016D0008093E8000E942420882399F391E001C0C0
:1016E00090E08091E8008B778093E800992309F4DB
:1016F0006BCCE9818E2F90E0FC013197E331F1054D
:1017000008F048C1EA5AFF4F0C9415311A8289E05B
:10171000A2C08A81823009F47BC1833051F08130CC
:1017200009F038C10E9487229B838C837D836E835E
:1017300033C1FE013396ADA5BEA58D91BEA7ADA761
:1017400081932E163F06B9F727C18A81823009F0AE
:1017500021C16B817C818D819E810E941B3186E23B
:1017600090E024C04C816B818A810E94E2239D839A
:1017700056C1CD80DE80DC24CD24DC248C810B811D
:101780009A81BEE00B9F80011124E0E79E9F000D2F
:10179000111D1124080F111D080F111D6D2DC801F9
:1017A00087960E94C1306C2DC80188960E94C13076
:1017B000F3C00E94AE23F0C08A818138B1F050F4AA
:1017C000803809F0E9C020E04B8160911B058091D1
:1017D0001A0523C08238E9F0833809F0DDC020E023
:1017E00040911C056C818B8118C060E08B810E9448
:1017F000572B8B81811103C00E94042ACDC0809198
:10180000190581608093190560E086950E94572B29
:10181000C3C08B8180931D05BFC00E944F2ABCC0EE
:101820008A81813899F030F4803809F0B5C0809110
:101830001C0511C0823869F0833809F0ADC0809171
:101840001A058B8380911B058C83A6C00E941B2ADE
:1018500002C080911D058B839FC060911905709116
:101860001A0580911B0590911C050E943D2A94C089
:1018700080E14DC082E08A8389E1EDCF0A811B813E
:10188000102701271027AC80B12C6701C8018951AE
:101890009E4F96012E193F092A153B0508F07CC082
:1018A0000931F2E01F0730F40E94AD30D6011496E2
:1018B0008C9302C0F60114820F5F1F4FFFEFCF1A07
:1018C000DF0AE4CF0A811B81102701271027AC8093
:1018D000B12C6701C80189519E4F96012E193F090D
:1018E0002A153B0508F058C0093122E0120728F4F8
:1018F000D60114966C910E94C1300F5F1F4FBFEF4D
:10190000CB1ADB0AE7CF0E949E2346C084E08A837D
:1019100043C00A811B81102701271027AC80B12CFE
:101920006701C801879696012E193F092A153B05C4
:1019300098F5003CE1E01E0730F40E94AD30D6017E
:1019400014968C9302C0F60114820F5F1F4FFFEFB5
:10195000CF1ADF0AE6CF0A811B8110270127102743
:10196000AC80B12C6701C801879696012E193F09FA
:101970002A153B0588F4003C21E0120728F4D60123
:1019800014966C910E94C1300F5F1F4FBFEFCB1AAE
:10199000DB0AE9CF8FEF89838091FA02843009F066
:1019A00013CB1091E9001F709091EC00892F81708A
:1019B00090FD80E8182B82E08093E9008091E80098
:1019C00080FF0CC040E050E060E270E0C7010E9480
:1019D00082258091E8008E778093E8001F70109335
:1019E000E900F2CA09BD19BD09B400FEFDCF80911E
:1019F000D8008F7D8093D8008091E0008260809332
:101A0000E0008091E00081FDFCCF0E941F1AE3CA34
:101A100086E290E00E94AD301B821C821D828E8384
:101A2000BBCF1F93CF93DF93CDB7DEB767970FB6CA
:101A3000F894DEBF0FBECDBF4B8B5C8B6D8B7E8B66
:101A40008F8B611110929E0286E09E01235F3F4FB3
:101A5000D901E82F1D92EA95E9F795E0FE0173960A
:101A6000D90101900D929A95E1F79C894E895F8981
:101A70007B897D879E876F87598B488BF901DE01B3
:101A8000179601900D928A95E1F7CE0107960E9474
:101A9000CE1781113EC086E0FE013796DE01119619
:101AA00001900D928A95E1F7FF81E8856A857B8533
:101AB0006115710531F0EF3F31F481E0FF3F19F41A
:101AC00003C081E001C080E080FD23C020916A0254
:101AD00030E0C90101968770992740919B0250E040
:101AE0008417950779F1F983EA837D836C8396E007
:101AF000929FD001939FB00D1124A559BD4FFE01B7
:101B0000319601900D929A95E1F780936A020E94B6
:101B1000F01616E080919B0290916A028917F9F005
:101B2000189FC001112485599D4F0E94CE1788230C
:101B3000B1F080919B0290E0019687709927809385
:101B40009B02E8CF0E941F1A10926A0210929B0219
:101B5000E4E6F2E086E0DF011D928A95E9F76796F8
:101B60000FB6F894DEBF0FBECDBFDF91CF911F91AE
:101B70000895982F92959F7019F0892F24E001C045
:101B800020E0982F9695969511F02E5F892F982F2B
:101B9000969509F02F5F822F08953F924F925F92A2
:101BA0006F927F928F929F92AF92BF92CF92DF926D
:101BB000EF92FF920F931F93CF93DF93CDB7DEB7D2
:101BC00029970FB6F894DEBF0FBECDBFFC01808110
:101BD000918123813481232B31F09F3F31F491E0B7
:101BE0008F3F19F403C091E001C090E090FD87C6DB
:101BF0007F0185E0DE01119601900D928A95E1F753
:101C0000F701228189819A81222349F00E94661777
:101C1000182F682F89819A810E949B1903C00E9406
:101C20006F19182F69817A81812F0E9408248C01F5
:101C3000F7018281882309F4F2C0980122513F45BF
:101C40002031310508F01DC18FEF93E00E94AD30C7
:101C50008111EFC0025137EE832E99249394002313
:101C600079F08114F4E09F0609F4E3C0C4010E94F6
:101C7000AD30811101C001502FEF821A920AEFCFCF
:101C80001E821F8218861986442443942AE0322E2D
:101C900084010F5F1F4FC4010E94AD308E831F82ED
:101CA000882309F4C6C09FEF980F933060F48F83A8
:101CB0004E8232E0830E911CC8010E94AD308887AD
:101CC000811102C0B6C048018E010A5F1F4FF801A2
:101CD00020812223E9F2213009F04CC0818181303A
:101CE00049F46801F2E0CF0ED11CF80182810E9414
:101CF000501A0AC0823051F46801F2E0CF0ED11CB4
:101D0000F80182810E942D2C860186C0833049F41F
:101D10006801F2E0CF0ED11CF80182810E94D62B1F
:101D2000F3CF843019F00F5F1F4F76C0F801228186
:101D30000E5F1F4F80E090E030E0205331092A30E1
:101D4000310568F4389EA001399E500D1124C90157
:101D5000840F951F0F5F1F4FF8012081EDCF009773
:101D600009F45AC0EFE9FFE03197F1F700C0000035
:101D70000197F5CFE22FF0E0EB5EFD4F5490822FFC
:101D800086958695869590E0FC01EB5FFD4F64900B
:101D90002770712C022E02C0759467940A94E2F7A2
:101DA000F1E06F227724FC01EB50FE4FA490B12CA0
:101DB000022E02C0B594A7940A94E2F731E0A32260
:101DC000BB24FC01EB51FE4FC490D12C02C0D59432
:101DD000C7942A95E2F781E0C822DD2461147104DA
:101DE00019F081EE0E942D2CA114B10419F086EE99
:101DF0000E942D2C852D0E94501AAB2819F086EEDA
:101E00000E94D62B672819F081EE0E94D62BCD2890
:101E100019F08CE20E94501A0F5F1F4F58CF00310B
:101E20003FE5130709F0B1C481E00E94CA190E947E
:101E30004E2580919C02877009F461C5F70182816B
:101E4000882309F45CC580910F0282FD58C582E0A9
:101E500029960FB6F894DEBF0FBECDBFDF91CF91AC
:101E60001F910F91FF90EF90DF90CF90BF90AF90B8
:101E70009F908F907F906F905F904F903F900C94C9
:101E8000D6190031FFE51F0711F481E005C00131CB
:101E90002FE5120721F482E00E94101AC8CF063AFB
:101EA000FDE51F0789F4882359F080910E0282FF17
:101EB00003C00E944225BDCF80E90E942D2CB9CFDE
:101EC00080E90E94D62BB5CF083A2DE5120709F01C
:101ED00041C1882359F00E94BE2B80911905816071
:101EE0008093190561E086950E94572BF701828146
:101EF000882309F4A2C11092DE020330FDE51F071A
:101F000058F40A3F2CE5120760F4C80182509C4542
:101F1000449708F07CC105C001363DE5130709F080
:101F200076C10E94221690930F0280930E02003118
:101F30008CE5180709F4CAC008F041C00830ECE588
:101F40001E0709F4A4C0F0F404302CE5120709F4CC
:101F50008CC068F402308CE5180709F482C00330A5
:101F60001C4509F0E7C080910E028260E1C0063096
:101F7000ECE51E0709F483C008F085C080910E02CD
:101F80008860D6C00C302CE5120709F490C068F4C4
:101F90000A308CE5180709F47EC008F084C00E945E
:101FA0001F1A80910E028068C3C00E30ECE51E0738
:101FB00009F481C008F086C080910E0294C00C3FE5
:101FC0002CE5120709F47BC038F504318CE51807BD
:101FD00009F49AC058F40231ECE51E0709F47AC0FE
:101FE00008F07EC080910E028F7BA2C00A3F2CE5D4
:101FF0001207F1F108F03FC005311C4509F09AC005
:1020000080910E0282FB222720F991E0922790FB1B
:1020100082F990FB83F98CC001159DE5190709F43D
:1020200067C050F480910F020E3FFCE51F07C1F11D
:1020300008F05BC08D7F65C002303DE5130709F4F1
:1020400071C008F46DC001361D4509F073C0809160
:102050000E0284FB222720F991E0922790FB84F95D
:1020600067C080910E02816063C080910E0216C02D
:1020700080910F0216C080910F02826042C0809151
:102080000E02806155C080910E02806251C0809125
:102090000E0280644DC080910E028860846048C04A
:1020A000826081602EC080910E028E7F41C080913F
:1020B0000E028D7F3DC080910E02877F39C08091D6
:1020C0000F0214C080910E028F7E32C080910E02EA
:1020D0008F7D2EC00E941F1A80910E028F7728C01C
:1020E00080910E02877F8B7F23C08D7F8E7F09C0FA
:1020F00080910F02982F909591708E7F892B90FB85
:1021000081F980930F0216C00E941F1A80910E025F
:1021100087FB222720F991E0922790FB87F908C0DE
:1021200061E001C060E08EE090E00E94C13002C03A
:1021300080930E0260910E0210910F0284E090E0F5
:102140000E94C130612F82E290E00E94C1300E9463
:102150001F1A6FCE053A3DE5130751F4882331F07D
:1021600080910E0282FDA5CE81E9A7CE81E9A9CE9C
:10217000033F8CE5180749F406E221EE40EE63EFD9
:102180007CE5C7010E942B2354CE043F9CE5190730
:10219000F8F4083DECE51E0731F407E225EE45EEC4
:1021A00068ED7CE5EECF093DFCE51F0731F408E260
:1021B00021E045EE69ED7CE5E4CF073D2CE5120713
:1021C00009F094CE06E221EE41EE67ED7CE5D9CF31
:1021D000053F3CE5130731F406E221EE42EE65EFE0
:1021E0007CE5CFCF053F8CE5180730F407E225EEFC
:1021F00044EE64EF7CE5C5CF063F9CE5190709F086
:1022000075CE07E225EE46EE66EF7CE5BACF0631E5
:10221000ECE51E0721F580919F028A7A91E009F48E
:1022200090E090934602882311F065E301C069E2D3
:1022300087E492E00E94D5220FC00631ECE51E072C
:1022400009F040C080914602882309F4A5C265E3E5
:1022500087E492E00E94C8220E94B516EACD0A35B2
:102260009DE5190749F158F40115FCE51F07B1F088
:102270000E3D1C4509F042C00E943E16DACD0B35DA
:102280003DE51307D9F00C351D45C1F580910F02CE
:1022900082FB882780F991E0892711C00E941F1ACC
:1022A0009FEFE4E3FCE09150E040F040E1F700C034
:1022B00000000E944122BDCD81E001C080E00E946B
:1022C000F3191CC080919F0282720B3CECE51E0743
:1022D00009F4F9C208F085C2063C2CE5120709F49E
:1022E000DEC208F069C2033C9CE5190709F4CDC2BF
:1022F00008F054C2023C1C4509F49DC2F7018281DA
:1023000000811181882349F0C8010E946617D82EE8
:10231000682FC8010E949B1904C0C8010E946F1950
:10232000D82EB8018D2D0E9408240E949714B82E33
:10233000192F982EF7010281A580A2949FE0A9226F
:1023400080919C028770B9F00023A9F0812F807FD3
:10235000803421F080E28B0D883068F080910F028C
:1023600082FD09C082E00E94D61980919C0287708C
:10237000DD24D3948111D12CC12EC2948FE0C822C8
:102380008C2D90E08C30910508F0CAC1FC01E75912
:10239000FF4F0C941531812F807F1F70882311F01F
:1023A0001295107F0023B9F0112309F4A7C180E230
:1023B0008B0D883010F0911006C080919F02182B71
:1023C00010939F0205C080919E02182B10939E02CD
:1023D0000E94B51693C18B2D0E94D62B112309F4B0
:1023E0009FC180E28B0D883080F1992071F11095AA
:1023F00080919E02182310939E022AC0812F807F15
:102400001F70803211F01295107F8B2D992021F0D2
:10241000F1E09F16D9F149C080910F0282FF1BC0E5
:10242000002369F0112339F080919F02182B10933B
:102430009F020E94B51680E00E942D2C71C180E0A1
:102440000E94D62B112309F46BC1812F0E94AE1676
:102450000E94B51665C1002381F08091A002AA20D8
:1024600051F021E0A21207C0182B181709F458C127
:102470001093A00255C1812B10C0AA2021F031E099
:10248000A31609F44DC10E94A81627C0002341F0ED
:1024900085E08A1508F444C1812F0E94461A40C184
:1024A00094E09A1508F43CC118C0002349F0AA2012
:1024B00099F3F701858180FF21C18F708583ECCF6F
:1024C000AA2059F0893309F028C1FFEF27EE33E045
:1024D000F15020403040E1F71EC1812F0E943F1A89
:1024E0001FC1812F86958695837019F0813061F028
:1024F00017C1002321F08B2D912F937002C080E033
:1025000090E00E94052312C1002321F08B2D912F12
:10251000937002C080E090E00E94EF2207C1812FFB
:102520008370A9F5011100C14B2D42954695477066
:10253000440F440F8B2D8F7090E09C01042E01C03E
:10254000220F0A94EAF7B4FE08C08FE090E001C0C1
:10255000880F4A95EAF7809501C080E01695169598
:102560001370123069F088F49091A102113019F0C3
:10257000822B892302C0922B892B0E941B1AD4C064
:10258000822B9091A1028927F8CF822BF6CF0023CE
:1025900019F0812F817001C08695882309F4C4C089
:1025A0004B2D429546954770440F440F8B2D8F70ED
:1025B00090E09C01042E01C0220F0A94EAF7B4FEB9
:1025C00008C08FE090E001C0880F4A95EAF7809537
:1025D00001C080E0169516951370123059F078F40A
:1025E00090910403113019F0822B892309C0922B9A
:1025F000892B06C0822B90910403892701C0822B6E
:102600000E94C61991C01F70002339F0812F0E94CB
:10261000101A8B2D0E94461A87C08B2D0E943F1ADC
:10262000812F0E94CA1980C08B2D92EF991679F1E3
:10263000991538F0E0EF9E1659F0F1EF9F1611F161
:1026400059C023EF921651F134EF9316B9F052C0EE
:10265000002379F084E08A1508F462C01F7181E0DC
:1026600090E001C0880F1A95EAF79091040389273A
:102670001FC095E09A1508F453C0F0CF80910F0267
:1026800082FF19C0002329F0812F8F7126C00023FB
:10269000D9F3812F8F710E94CA1942C0002339F0EB
:1026A0001F7181E001C0880F1A95EAF701C080E030
:1026B0000E94C61935C0002399F01F71812F0E9416
:1026C000101A80910F0282FD07C0E8E01E9FC00132
:1026D0001124836080939C02812F0E94101A20C0D5
:1026E00081E00E94D619F1E0FA15D0F482E00E9450
:1026F000D61916C0002321F0AA2031F28B2D9CCED2
:10270000AA2039F2893349F42FEF37EE83E02150C4
:1027100030408040E1F700C000008B2D0E94D62B96
:1027200088EF8C0D843010F40E941B23DD2009F407
:10273000E6C080919C0280FDE2C0F701128285957F
:10274000859585950E94101AC7010E94CD0D809134
:102750009C0285958595859529960FB6F894DEBFE0
:102760000FBECDBFDF91CF911F910F91FF90EF90E2
:10277000DF90CF90BF90AF909F908F907F906F90A1
:102780005F904F903F900C94CA1901319FE5190753
:1027900009F085CB82E049CB69E25ACD043C2CE5B7
:1027A000120709F477C0053C1C4509F0A7CD43E2A8
:1027B0005BE26CE27BE290C0083C9CE5190709F4FF
:1027C00078C008F471C0093CFCE51F0709F476C025
:1027D0000A3C1C4509F092CD4FEF5AE263EF7AE2D2
:1027E0007BC0003D3CE5130709F47CC098F40D3C28
:1027F000ECE51E0709F473C008F46AC00E3C2CE532
:10280000120709F416CB0F3C1C4509F077CD64E0A4
:1028100082E06DC0043D8CE5180709F466C008F439
:1028200008CB053DECE51E0709F464C00D351D45D8
:1028300009F4FFCA63CD8091190580FF20C08E7F07
:10284000809319056091190570911A0580911B05F7
:1028500090911C050E943D2A0E94D1288091180564
:102860008160809318052FEF30E782E021503040DF
:102870008040E1F700C000000E94F328DACA8160BE
:102880008093190561E0869537C047E95BE260EA0D
:102890007BE222C040EA5BE267E97BE21DC04CE2DA
:1028A0005BE263E27BE218C04BE05BE267E17BE264
:1028B00013C047E15BE26BE07BE20EC043EF5AE2FC
:1028C0006FEF7AE209C045E35BE266E47BE204C0B5
:1028D00046E45BE265E37BE20E94CB28AACA61E0A2
:1028E00081E00AC06AE085E002C064E18BE00E94FA
:1028F000AA2B9FCA61E085E10E94572B9ACA2996AC
:102900000FB6F894DEBF0FBECDBFDF91CF911F9100
:102910000F91FF90EF90DF90CF90BF90AF909F907E
:102920008F907F906F905F904F903F900895CF93DE
:10293000DF938238910569F1B0F48133910509F490
:102940006FC048F48932910509F465C08A32910557
:1029500009F46BC08AC08533910509F457C08933E7
:102960009105B9F082C0833E910571F138F4803E43
:102970009105B1F0823E910511F177C0863E910537
:10298000B9F1873E9105C9F1843E910509F06DC00A
:1029900024C020910E0220FD53C021FD51C065C00E
:1029A00080910E0280FD46C080910F0280FF48C0DA
:1029B00080910E0284FD3FC183EE90E03EC1809184
:1029C0000E0282FF3AC0F4CF80910E0282FD35C024
:1029D00080910F0280FD34C0EBCF80910F0281FF08
:1029E00035C080910E0284FD26C187EE90E025C19E
:1029F00080910E0283FF27C0F4CF80910E0283FDE9
:102A000022C080910F0281FD21C0EBCF80910E0288
:102A100085FD1FC021C080910E0285FD1DC019C01B
:102A200080910E0286FD1BC01DC080910E0286FDA6
:102A300019C015C089E390E000C182EE90E0FDC0AE
:102A400080EE90E0FAC086EE90E0F7C084EE90E071
:102A5000F4C089E290E0F1C085E390E0EEC08AE244
:102A600090E0EBC081E390E0E8C0811532E5930788
:102A700008F069C0811541E5940728F0982F882750
:102A8000816F906ADAC0883E910568F5803E9105B5
:102A900008F0D3C0883A9105B8F4853A910548F01A
:102AA000855AE82FF0E0E456FE4F808190E0906474
:102AB000C4C08130910509F4BBC008F4BCC08430A7
:102AC000910508F4B8C0B9C08F3B910508F0B3C0B8
:102AD000885AE82FF0E0EE0FFF1FE156FE4F80818D
:102AE00091819464AAC0811520E59207F0F09C01C1
:102AF00074E0369527957A95E1F7922F9370482FD9
:102B0000437021E030E002C0220F331F4A95E2F704
:102B10003C68392B8F70982F9695969540E2949F3C
:102B2000C0011124822B932B88C0811530E49307B8
:102B300018F09F70906A81C09C013A9521153F4121
:102B400008F47BC078C0EC01C11586E5D807E8F52C
:102B5000C11525E5D20748F08C2F0E94221D8F71E8
:102B600090E0982F8827906268C0C11534E5D3079C
:102B700028F09C2F8827846F906A5FC0AE01437055
:102B800055272C2F26952695C115D34578F481E03D
:102B900090E002C0880F991F4A95E2F740E2249F17
:102BA00090011124822B932B9C6847C081E090E018
:102BB00002C0880F991F4A95E2F740E2249F9001D6
:102BC0001124822B932B9A6838C0C1152AE5D207AD
:102BD000F8F4C11539E5D30790F08C2F8F700E945F
:102BE000221D94E0D695C7959A95E1F7CF70D0E075
:102BF000DC2FCC27D0699E01282BC9011EC0C1152E
:102C000048E5D407C0F09C2F8827806F906A15C0D4
:102C1000CE0190568115904270F48D2F8F710E94D5
:102C2000221D282F2F71CE0199279062922B05C06B
:102C300081E090E002C080E090E0DF91CF910895C4
:102C40000C948722CF9384E090E00E94AD30C82F8F
:102C500082E290E00E94AD302C2F30E0A901582B89
:102C6000CA01CF91089580E090E00E94BB30893E78
:102C70009E4F11F40C94B22880E0089569EE7EEF27
:102C800080E090E00E94DF3060E082E090E00E940F
:102C9000C13060E083E090E00E94C1301092A10258
:102CA00060E084E090E00E94C13060E082E290E069
:102CB0000E94C13060E085E090E00E94C13060E099
:102CC00086E090E00E94C1306FEF87E090E00E94C4
:102CD000C13040E050E0BA0188E090E00E94D3307B
:102CE00060E08DE090E00E94C13040E050E0BA0129
:102CF00088E190E00E94D33060E087E190E00E949C
:102D0000C13040E050E0BA018CE190E00E94D33045
:102D100060E070E080E290E00E94DF3040E050E050
:102D2000BA0188E190E00E94D33080E00E948528BB
:102D30000E94A32840E050E0BA018FE090E00E949A
:102D4000D33040E050E0BA0183E190E00C94D330FE
:102D50008091A00281111092A00208958095909117
:102D60009F02892380939F02089590919F028091F2
:102D70009E02892B20919D02982F922B90934702BF
:102D80008091A002882389F0892B80934702E9E48F
:102D9000F2E097E080E0915029F021912223D9F3CD
:102DA0008F5FF9CF81110E94A816E091E102F091A6
:102DB000E202309731F00280F381E02D87E492E067
:102DC0000994089580E090E00E94052380E090E05F
:102DD0000E94EF2210929E0210929D020C94B51652
:102DE00080919B0290916A02891719F08F5F87701A
:102DF000FBCF08950F931F93CF93DF9380916902C8
:102E000082958F7009F05DC080916602882309F475
:102E100058C080919B0210916A0260916402709187
:102E20006502C0916702D091680291E06F3F09F09E
:102E300090E0292F06E0811709F443C0209721F084
:102E40007F3F21F030E003C031E001C0322F90E03D
:102E500030FD34C0089FF001099FF00D1124DF01FF
:102E6000A559BD4F11963C911197371327C03C913E
:102E7000361324C012963C91129731111FC013963D
:102E80004D915C9114974C1B5D0B483C5105B0F47F
:102E9000809169028F70806180936902E059FD4FD3
:102EA00080818F708061808384E692E00E94CD0DE6
:102EB000DF91CF911F910F910C94F01601968770BE
:102EC000BACFDF91CF911F910F910895CF92DF92EA
:102ED000FF920F931F93CF93DF936C010091040334
:102EE0008091A102082BC7E0D0E010E0C8010C2EB1
:102EF00002C0959587950A94E2F780FD04C021975A
:102F0000A8F7F12C09C0FC2EB6018C2F0E940824D2
:102F10000E949714019799F38F2DDF91CF911F9104
:102F20000F91FF90DF90CF900895CF93DF93EC0146
:102F30000E946617BE010E9408240E949714DF9128
:102F4000CF910895FC01808191810E949517292FCE
:102F50002F70E92FE295EF704E2F50E0FA01329773
:102F6000EE30F105B8F4EB58FF4F0C941531803F6B
:102F700099F018F4883E70F40FC0843F59F40CC0E7
:102F8000883E50F0813F31F407C0822F86958695A8
:102F90008695089580E0089581E008959F92AF920C
:102FA000BF92CF92DF92EF92FF920F931F93CF9336
:102FB000DF93CDB7DEB761970FB6F894DEBF0FBED3
:102FC000CDBF8C0185E0F801DE011D9601900D92C8
:102FD0008A95E1F7F801E2809091640260916502C0
:102FE00040916702509168024115510531F06F3FE1
:102FF00031F481E09F3F19F403C081E001C080E01B
:10300000F82FF1709F2E80FD1AC1F80130812181C7
:10301000C380D48084E6A82E82E0B82EF0906602A9
:10302000F601E41BF50BFF2009F4C6C0809169028C
:10303000E83CF10508F091C0482F407F09F050C0EE
:10304000621311C093130FC0FE2CE1100CC08F70DF
:10305000806180936902C5010E94CD0D8091690253
:10306000F801858329C1CD2831F02F3F31F481E06B
:103070003F3F19F403C081E001C080E080FD03C040
:1030800081E08E2502C080E090E0F82FF170FF2EE5
:1030900080FF1CC080919B0240916A0256E0841719
:1030A00009F4E8C090E0589FF001599FF00D1124F9
:1030B000E559FD4F6181261306C06081631303C08B
:1030C0006281E61203C001968770E9CFFE2CEE20E4
:1030D00009F4F2C08091690281608093690249C05D
:1030E000621306C0931304C0E11002C0F80186C049
:1030F000C8010E94A217882351F1EE2041F12091CE
:103100006902822F82958F7090E0029774F080910F
:1031100064029091650298878F831986DB86CA8640
:103120002C87CE0107960E94CD0D86E0F801A4E61B
:10313000B2E001900D928A95E1F70E94FA160AC05A
:103140006217C9F0C8010E94A21781111EC0C801F0
:103150000E94CD0DFF24F394AFC0482F407F81F72C
:1031600084E692E00E94CD0D86E0F50111928A95E9
:10317000E9F7F12CA1C09313E5CFE110E3CFF801FB
:103180008583C8010E94CD0D54C0EE2001F320912B
:103190006902822F82958F7090E0029734F28091BD
:1031A0006402909165029A8389831B82DD82CC82BE
:1031B0002E83CE010196B7CFE83CF105D0F5FE2C69
:1031C000EE2029F2621327C0931325C020916902D3
:1031D00020FD18C0822F82958F70482F50E0411536
:1031E000510581F0F80125834F30510541F08F5F83
:1031F000982F9295907F822F8F70892B8583C8019D
:103200000E94CD0D86E0F801A4E6B2E001900D9297
:103210008A95E1F751C0C8010E94A217811185CF9C
:1032200080916902816080936902C8010E94CD0D7E
:1032300043C086E0F50111928A95E9F73DC0EE2082
:1032400009F485CFC8010E94A217F82E882309F43B
:103250007ECF86E0F801A4E6B2E001900D928A9557
:10326000E1F780916402909165020E9495170E9497
:10327000FA1622C03D872E878D859E850E94951760
:10328000292F22952F70223028F49F7039F0811158
:1032900005C00BC0243028F49F7049F4805E88304C
:1032A00020F0C8010E94CD0D9F2CF92C05C0F8011B
:1032B0009581907F99F7F9CF8F2D61960FB6F8948D
:1032C000DEBF0FBECDBFDF91CF911F910F91FF9059
:1032D000EF90DF90CF90BF90AF909F90089527E040
:1032E000929F800D1124682F669566956695982F9C
:1032F000977083E0689FB001112440E050E080E0C7
:10330000FB01E40FF51FE15BFD4F208130E0092E4A
:1033100002C0369527950A94E2F721703327042ED0
:1033200001C0220F0A94EAF7822B4F5F5F4F4330B0
:10333000510531F7089527E0929F800D1124E82F61
:10334000E695E695E695877051E001C0550F8A95A0
:10335000EAF783E0E89FF0011124E15BFD4F20E0F4
:1033600030E070E04081CB01022E02C09695879537
:103370000A94E2F7817081958427852384278193BD
:103380002F5F3F4F2330310569F708958093040381
:103390000C94E21621E030E001C0220F8A95EAF792
:1033A00020958091040382230C94C61920919C02DD
:1033B0008095822380939C02982F977099F430E037
:1033C000482F082E000C550B2417350759F0909103
:1033D0000F0292FD07C08595859585950E94CA19B3
:1033E00010929C020895CF93C0910F02C2FB9927BF
:1033F00090F9981799F080FBC2F9C0930F02609181
:103400000E0284E090E00E94C1306C2F82E290E0D6
:103410000E94C13082E0CF910C94D619CF910895CB
:1034200021E030E001C0220F8A95EAF78091040381
:10343000822B0C94C6198093A1020C94E216109270
:103440009F0286E0E9E4F2E0DF011D928A95E9F748
:103450000C94E216882341F0809590919E02892376
:1034600080939E020C94B5160895882339F09091AC
:103470009E02892B80939E020C94B5160895882392
:1034800021F00E94AE160C94B5160895882339F0E9
:1034900090919F02892B80939F020C94B5160895FA
:1034A0001F93CF93DF93182F893319F0C0E0D0E03A
:1034B00002C0C0E5D0E0812F0E942D2C209741F062
:1034C0008FE99FE00197F1F700C000002197F6CF48
:1034D000812FDF91CF911F910C94D62B80E008951E
:1034E000AF92BF92CF92DF92EF92FF920F931F9312
:1034F000CF93DF937C015B016A018091D5028A3012
:1035000018F001E010E002C00AE010E0C1E0D0E0F5
:10351000F894B501C701F60109957894811115C099
:1035200021960C171D0794F0CC9F9001CD9F300D74
:10353000300D112480E090E045E34A95F1F700005A
:10354000019682179307C1F7E3CF81E0DF91CF9116
:103550001F910F91FF90EF90DF90CF90BF90AF90B1
:103560000895CF93DF93CDB7DEB728970FB6F894C1
:10357000DEBF0FBECDBF85E0E9E1F5E0DE011196CB
:1035800001900D928A95E1F78091160590911705AB
:10359000A09118058E839F83A88728854091D1022A
:1035A0005091D2026091D3027091D4023FB7F89447
:1035B0008091E6029091E702A091E802B091E902C1
:1035C0003FBF841B950BA60BB70B84369105A10555
:1035D000B10510F4222329F18091490190914A010B
:1035E00082549D4F4091480150E04930510510F000
:1035F00048E050E0BE016F5F7F4F0E943C3185E0A4
:1036000090E00E94D82F892B11F080E00DC00E941D
:1036100087226093D1027093D2028093D302909359
:10362000D4021092180581E028960FB6F894DEBFF8
:103630000FBECDBFDF91CF9108957F928F929F9261
:10364000AF92BF92CF92DF92EF92FF920F931F93B0
:10365000CF93DF931F92CDB7DEB7762E4A01590183
:103660006801082F880F110BC8010E94D82F892BE1
:1036700009F07EC08AE0809FF001819FF00D112447
:10368000EC5EFE4F458150E04115510511F041E0DF
:1036900050E08AE0809FF001819FF00D1124EC5EE4
:1036A000FE4F6681778162547D4FCE0101960E9464
:1036B0003C31F40140815181628173812FB7F894CC
:1036C0008091E6029091E702A091E802B091E902B0
:1036D0002FBF841B950BA60BB70B84369105A10554
:1036E000B10540F4B701C6010E948524998189176C
:1036F00009F440C0072D770C110BC8010E94D82F88
:10370000892B09F5E114F10401F18AE0809FF001B1
:10371000819FF00D1124EC5EFE4F458150E0E416D0
:10372000F50608F4A7018AE0809FF001819FF00D63
:103730001124EC5EFE4F6681778162547D4FC50196
:103740000E943C3102C010E001C011E0B701C60187
:103750000E94852491E02981281390E0192381F0AB
:103760000E948722F401608371838283938308C05F
:1037700010E001C011E0A701B601C5010E943C3173
:10378000812F0F90DF91CF911F910F91FF90EF90BC
:10379000DF90CF90BF90AF909F908F907F900895D3
:1037A000CF92DF92EF92FF920F931F93CF93DF930D
:1037B0001F92CDB7DEB7EE24E394F12C04EC12E0B7
:1037C0009E012F5F3F4F46EB52E063E082E00E9494
:1037D0001D1BC82E8823C9F100910502802F90E09F
:1037E0009C01275F3D4F79011981F9018081181BE8
:1037F000D12E80E01D1484F4DA94F70180818F5F6C
:103800008083011102C08BE403C0013019F482E50A
:103810000E94501A81E0EECF912F17FD90E0191B06
:10382000112381F01F5FF701808181508083011196
:1038300002C08EE403C0013019F481E50E94501AE1
:1038400081E0EECF81110E9420168C2D0F90DF9128
:10385000CF911F910F91FF90EF90DF90CF9008953F
:10386000CF92DF92EF92FF920F931F93CF93DF934C
:1038700000D000D0CDB7DEB76B0184E0E82EF12C8C
:103880000FEB12E09E012F5F3F4F42EB52E061E0F1
:1038900080E00E941D1B882361F049815A816B8161
:1038A0007C814093AE025093AF026093B00270935C
:1038B000B1024091AE025091AF026091B00270919E
:1038C000B102F60140835183628373830F900F909E
:1038D0000F900F90DF91CF911F910F91FF90EF907C
:1038E000DF90CF9008958091AD02811118C0809132
:1038F000D80080618093D8008AE18A95F1F700C0F2
:103900008091D90080FD02C082E001C081E08093F7
:10391000AD02823021F40E9405201092FA0281E06B
:103920009091AD02913009F080E008950F931F93BC
:103930000E94731C882321F01F910F910C94872201
:103940000E9487220091F6011091F7012091F80161
:103950003091F901600F711F821F931F1F910F910A
:103960000895CF93DF9300D000D0CDB7DEB740915C
:10397000BA025091BB026091BC027091BD022FB798
:10398000F8948091E6029091E702A091E802B0914C
:10399000E9022FBF841B950BA60BB70B843691054C
:1039A000A105B10580F10E94961CDC01CB010296B5
:1039B000A11DB11D89839A83AB83BC8380913F0194
:1039C0009091400182549D4F40913E0150E045301E
:1039D000510510F044E050E0BE016F5F7F4F0E9440
:1039E0003C3184E090E00E94D82F892B11F080E0D8
:1039F0000BC00E9487226093BA027093BB0280932F
:103A0000BC029093BD0281E00F900F900F900F9039
:103A1000DF91CF910895F894E82FE295EF70F0E0F0
:103A200031A1282F2F7081E090E001C0880F2A95E6
:103A3000EAF7982F9095932391A392A1892B82A3C3
:103A40007894089590910E0292FF0DC0282F28714E
:103A5000283019F4877F846006C0282F2471243011
:103A600011F48B7F886093FF0DC0282F28712831B7
:103A700019F4877E846106C0282F2471243111F443
:103A80008B7E886120910F0220FF0DC0382F387186
:103A9000383019F4877F816006C0382F317131309A
:103AA00011F48E7F886021FF0DC0282F28712831E6
:103AB00019F4877E816106C0282F2171213111F40C
:103AC0008E7E886194FD877E08950E94731C81110B
:103AD0000C9493220E94961CCB0108955F926F92E2
:103AE0007F928F929F92AF92BF92CF92DF92EF928E
:103AF000FF920F931F93CF93DF93CDB7DEB72C9731
:103B00000FB6F894DEBF0FBECDBFAE014F5F5F4F63
:103B10007A0188E0DA011D928A95E9F705E711E05C
:103B20006A0189E7682E81E0782EAA24A394B12C3B
:103B300024E8822E21E0922EF80180818F3F09F443
:103B400040C0F894E82FE295EF70F0E021A18F706B
:103B5000A50102C0440F551F8A95E2F7CA01922FB2
:103B6000982B91A392A18095892382A3789400C079
:103B7000EDE7F1E0512C31E021912F3F89F0A22FA8
:103B8000A295AF70B0E090968C9190E02F7002C03B
:103B9000959587952A95E2F780FD02C0832F01C095
:103BA00080E0582A330F8E169F0631F7D8018C918A
:103BB0008F3F11F00E940B1DB0EABA95F1F7F601A4
:103BC00050820F5F1F4FFFEFCF1ADF0A601671069A
:103BD00009F0B2CF48E050E0B7018AEF91E00E94CF
:103BE0002F318C01892B41F088E0F701AAEFB1E079
:103BF00001900D928A95E1F7F090030201151105ED
:103C000049F081E08093A5020E9493229093A40240
:103C10008093A3028091A5028823B9F08091A3022A
:103C20009091A4020E947822059778F0AAEFB1E063
:103C3000EF2DF0E0E25CFD4F8EEF91E02D912193AE
:103C40008A179B07D9F71092A5020115110509F0F3
:103C50001CC10E94731CE0910302882309F481C0F7
:103C600019861A861B861C860E2F10E0025C1D4FDB
:103C70008091D5028A3058F440E35CE1BE01675F71
:103C80007F4FC8010E94701A8823F1F10AC0809109
:103C9000A6029091A7020E947822843F914060F78B
:103CA00044C040ED5BE1BE01675F7F4FC8010E94E9
:103CB000701A882349F141EB5CE1BE01675F7F4FD9
:103CC000C8010E94701A8823F9F041EB5AE1BE0145
:103CD000675F7F4FC8010E94701A8823A9F0109275
:103CE000D5028091020290E044E050E0BE01675F9F
:103CF0007F4F825C9D4F0E942F3121E02093AC02C8
:103D0000892B01F500E0C3C08091D5028F3F19F0E7
:103D10008F5F8093D5028091D5028A3010F30E9484
:103D200093229093A7028093A6028091AC028823ED
:103D300049F3FE01399684E0DF011D928A95E9F787
:103D40001092AC02E0910202F0E0E25CFD4F898546
:103D50009A85AB85BC8580839183A283B38301E080
:103D600096C0F0E0E25CFD4FF89484E0AFEBB2E087
:103D700001900D928A95E1F764E070E08FEB92E09C
:103D80000E9485248093BE027894F894E0910C02FE
:103D9000F0E0E75FFD4F808189878093C40261E096
:103DA00070E0CE0109960E9485248093C302789426
:103DB000F894C090C502D090C602E090C702F0907F
:103DC000C8028091A8029091A902A091AA02B09184
:103DD000AB02C816D906EA06FB06D1F0C092A802CB
:103DE000D092A902E092AA02F092AB020E94731C48
:103DF00081110EC00E948722C61AD70AE80AF90A62
:103E0000C092F601D092F701E092F801F092F90128
:103E10007894F8948091D0028823A9F180FF10C093
:103E20008091C90280FF0AC090911905916090931A
:103E3000190560E086950E94572B02C00E94042A53
:103E40008091D00281FF09C020E04091CC026091B6
:103E5000CB028091CA020E944F2A8091D00282FF39
:103E600009C08091CF02882319F00E94D82802C08F
:103E70000E94D1288091D00283FF03C081E080930B
:103E800013051092D002789402C001E010E0802F58
:103E90002C960FB6F894DEBF0FBECDBFDF91CF9149
:103EA0001F910F91FF90EF90DF90CF90BF90AF9058
:103EB0009F908F907F906F905F90089508950895E0
:103EC0008091EF0208958093EA027093EC02609370
:103ED000EB028091FA028430F9F48093E9008FEFCD
:103EE0009091E800815095FD06C095ED9A95F1F707
:103EF00000008111F5CF8091E80085FF0DC040E002
:103F000050E063E070E08AEE92E00E9482258091AA
:103F1000E8008E778093E8000895BC0184E00C945B
:103F2000631FBC0183E00C94631FCF93DF9321E0F8
:103F30002093E9002FEF3091E800215035FD06C0B5
:103F400035ED3A95F1F700002111F5CF2091E80009
:103F500025FF14C0EC0140E050E068E070E00E94F2
:103F600082258091E8008E778093E80088E0FE014A
:103F7000A0EFB2E001900D928A95E1F7DF91CF9129
:103F800008951F920F920FB60F9211242F933F9313
:103F90004F935F936F937F938F939F93AF93BF9351
:103FA000CF93DF93EF93FF93C091E900CF7080919F
:103FB000EC00D82FD17080FDD0E81092E9008091FC
:103FC000F000877F8093F00078940E94AE251092D5
:103FD000E9008091F00088608093F000CD2BCF70D5
:103FE000C093E900FF91EF91DF91CF91BF91AF9125
:103FF0009F918F917F916F915F914F913F912F9101
:104000000F900FBE0F901F901895E8EDF0E08081A3
:104010008E7F80831092E2001092DA001092E1000D
:10402000A0EEB0E08C9181608C9380818F7780834B
:1040300019BCA7EDB0E08C918E7F8C9380818F7E30
:1040400080831092ED0208952091E4003091E50004
:1040500095E64091EC00842F817040FF23C0809151
:10406000E80080FD1DC08091FA02882399F0853018
:1040700099F08091EB0085FD11C04091E4005091D2
:10408000E5002417350729F3915011F09A01E1CF8B
:1040900084E0089582E0089583E0089581E0089522
:1040A00080E008954091E80042FFDDCF08958091BF
:1040B000FC0287FF11C08091E80082FD05C080915D
:1040C000FA028111F8CF11C08091E8008B770BC004
:1040D0008091FA02882349F08091E80080FFF8CFB0
:1040E0008091E8008E778093E8000895982F9730AC
:1040F00068F59093E900981739F07091EC002091E1
:10410000ED005091F00003C0242F762F50E021FDE8
:1041100002C09F5FECCF3091EB003E7F3093EB000D
:104120003091ED003D7F3093ED003091EB00316038
:104130003093EB007093EC002093ED005093F0006F
:104140002091EE0027FDE5CF80E008958F708093E9
:10415000E90081E00895CF92DF92EF92FF920F93F2
:104160001F93CF93DF93C8EDD0E088818F7E888343
:10417000E7EDF0E080818160808384E082BF81E0B0
:104180008093ED0288818E7F888302EE10E0F80133
:1041900010821092DA0081EEC82ED12CF601108226
:1041A00088818F77888388818068888388818F7DE4
:1041B000888319BC1092FA021092FB021092F90245
:1041C0001092F80290EEE92EF12CF70180818B7F9E
:1041D000808388818160888342E060E080E00E9483
:1041E0007620F60180818E7F8083F8018081816056
:1041F0008083808188608083F70180818E7F8083C7
:10420000888180618883DF91CF911F910F91FF900A
:10421000EF90DF90CF9008951F920F920FB60F92FC
:1042200011242F933F934F935F936F937F938F93BB
:104230009F93AF93BF93EF93FF938091E10082FF31
:1042400009C08091E20082FF05C08091E1008B7F70
:104250008093E1008091DA0080FF2AC08091D8002D
:1042600080FF26C08091DA008E7F8093DA008091F3
:10427000D90080FF18C080E189BD82E189BD09B401
:1042800000FEFDCF81E08093FA028091ED02811162
:104290000FC00E9405200E94AB208091E200846044
:1042A0008093E20005C019BC1092FA021092ED0250
:1042B0008091E10080FF17C08091E20080FF13C071
:1042C0008091E2008E7F8093E2008091E200806125
:1042D0008093E2008091D80080628093D80019BC5E
:1042E00085E08093FA028091E10084FF30C08091E4
:1042F000E20084FF2CC080E189BD82E189BD09B460
:1043000000FEFDCF8091D8008F7D8093D8008091F2
:10431000E1008F7E8093E1008091E2008F7E8093A8
:10432000E2008091E20081608093E2008091FB02D4
:10433000882311F084E007C08091E30087FD02C06C
:1043400081E001C083E08093FA028091FA028091BB
:10435000E10083FF27C08091E20083FF23C08091AA
:10436000E100877F8093E10082E08093FA0210925F
:10437000FB028091E1008E7F8093E1008091E2005A
:104380008E7F8093E2008091E20080618093E20062
:1043900042E060E080E00E9476208091F00088603A
:1043A0008093F000FF91EF91BF91AF919F918F911A
:1043B0007F916F915F914F913F912F910F900FBE21
:1043C0000F901F9018952091020330910303261738
:1043D000370748F06115710539F42091E8002E7710
:1043E0002093E80001C0B901FC0120E061157105CE
:1043F00079F18091FA028823F1F18530F1F1809111
:10440000E80083FD3CC08091E80082FD2EC08091D1
:10441000E80080FFEBCF2091F3008091F20090E064
:10442000922B6115710551F08830910538F4219176
:104430002093F100615071090196F3CF21E00897B4
:1044400009F020E08091E8008E778093E800CECFDD
:104450002111CFCF0AC08091FA02882361F0853004
:1044600061F08091E80083FD0AC08091E80082FF3E
:10447000F2CF80E0089582E0089583E0089581E01E
:10448000089587E797E790930108809300089AE0E2
:1044900088E10FB6F894A895809360000FBE9093C2
:1044A0006000FFCF78941F920F920FB60F921124E5
:1044B0008F939F93AF93BF938091E6029091E70211
:1044C000A091E802B091E9020196A11DB11D80936F
:1044D000E6029093E702A093E802B093E902BF914D
:1044E000AF919F918F910F900FBE0F901F901895D5
:1044F0009C014FB7F8948091E6029091E702A09159
:10450000E802B091E9024FBF821B930B08952FB7C9
:10451000F8946091E6027091E7028091E802909130
:10452000E9022FBF08952FB7F8948091E602909189
:10453000E702A091E802B091E9022FBF08951F920F
:104540000F920FB60F9211248F939F93AF93BF9347
:104550008091E502811113C08091E6029091E702FB
:10456000A091E802B091E9024196A11DB11D80938E
:10457000E6029093E702A093E802B093E902BF91AC
:10458000AF919F918F910F900FBE0F901F90189534
:104590009C012A5F3F4FFC014281461301C01282F9
:1045A000019682179307B9F708959C01FC01329692
:1045B0009FEF80E04191461789F09F3F19F4411128
:1045C00001C0982F8F5F8630A9F79F3F39F0F9011E
:1045D000E90FF11D97FDFA956283089508952091E2
:1045E000E3023091E4022817390771F09093E40256
:1045F0008093E302E091E102F091E202309721F032
:104600000084F185E02D099408952091DF02309116
:10461000E0022817390771F09093E0028093DF02DF
:10462000E091E102F091E202309721F00680F781FB
:10463000E02D099408950E94731C882351F0E091A5
:10464000E102F091E202309721F00190F081E02D3B
:10465000099480E008950F931F93CF93DF93C42FA5
:10466000D22FFC0182818823C9F04093DE020E9490
:1046700093229093DD028093DC0280E28C0F8830DD
:1046800008F057C0C77081E001C0880FCA95EAF7EB
:10469000DF91CF911F910F910C94461A8091DE0209
:1046A000481330C08091DC029091DD020E94782294
:1046B000883C910538F510E21D0FCD17B9F080E266
:1046C0008C0F883040F4C77081E001C0880FCA9514
:1046D000EAF70E943F1A183028F581E09D2F977065
:1046E00001C0880F9A95EAF70E94461A802F0E940F
:1046F000501A1830F0F4D77081E001C0880FDA95B5
:10470000EAF70AC080E28C0F883098F4C77081E025
:1047100001C0880FCA95EAF7DF91CF911F910F91E1
:104720000C943F1A802FDF91CF911F910F910C9421
:10473000501ADF91CF911F910F910895CF93DF937E
:10474000C7EED1E060E0CE010E94C1302196C115D4
:1047500084E0D807B9F7DF91CF910895CF92DF9227
:10476000EF92FF920F931F93CF93DF93C0E0D0E0BF
:104770008E0100591F4F6E018EE0C80ED11CFE0144
:10478000E756FD4FE590F4906F2DCE0187960E947D
:10479000C1306E2DCE0188960E94C1302296CC1574
:1047A000DD0569F70C171D0731F7E801003C1140E2
:1047B000F9F6DF91CF911F910F91FF90EF90DF906D
:1047C000CF9008950F931F93CF93DF93C42FD0E022
:1047D000CC0FDD1F2EE0629FC00DD11D112430E7EC
:1047E000839FC00DD11D1124CE0187960E94AD304C
:1047F000082F10E0102F0027CE0188960E94AD30C0
:104800009801282BC901DF91CF911F910F91089535
:10481000462F843038F4783028F4673018F4672F46
:104820000C94E22380E090E008958091DB02909167
:10483000DA02882389F0992369F062E070E087E961
:1048400092E00E945925892B19F08091DA0208958F
:104850001092DA029091DA0281E08927089580911E
:10486000DB028823F9F00E948722DC01CB01805A09
:104870009541AF4FBF4F8093D6029093D702A0933C
:10488000D802B093D9028091DA0281110BC062E0A4
:1048900070E085E992E00E945925892B19F481E0A6
:1048A0008093DA028091DA020895CF93E82F209165
:1048B0000E0530910F052850334040910503642FB9
:1048C00070E0C9010E949030481B842FEE2351F004
:1048D00066E00E94F530C82FC150A8F080E20E9427
:1048E0009C24FACFA901480F511D4115524018F0E0
:1048F00080E020E030E0280F311D285F3C4F3093EE
:104900000F0520930E05CF910895FC01680F791FC4
:104910008FEF91E3E617F70771F02191822728E0E6
:1049200030E087FF03C0880F892701C0880F21501E
:104930003109B9F7EFCF0895CF93DF938A3011F49F
:1049400081E003C08D3029F480E0DF91CF910C9499
:104950005524682F80910E0590910F0526E0FC01EB
:10496000A8E0B5E001900D922A95E1F7603E30F0A5
:1049700026E0FC0111922A95E9F70AC0F6E06F9F44
:10498000B001112468567A4F46E050E00E94A430EE
:10499000C0910E05D0910F0546E050E0BE0188E0C1
:1049A00095E00E942F31892B49F19E012850334018
:1049B000A90185E0569547958A95E1F781E090E059
:1049C000BC0102C0660F771F4A95E2F740910603CB
:1049D00050910703462B572B2B5F3F4F65E03695D1
:1049E00027956A95E1F702C0880F991F2A95E2F78B
:1049F000842B952B90930703809306039E012250EE
:104A0000334040910503642F70E0C9010E9490304B
:104A1000481B463010F4240F311D211582E0380761
:104A200010F020E030E0285F3C4F30930F052093DA
:104A30000E05DF91CF910895CF93DF93EC01FE0136
:104A40008491882321F00E949C242196F8CFDF9145
:104A5000CF9108950F931F93CF93DF93EC01FC0147
:104A600001900020E9F78F0101501109C017D1070B
:104A700020F489910E949C24F9CFDF91CF911F915E
:104A80000F91089584E00E94351A85E30E942D2C31
:104A900085E30E94D62B84E00C942A1A80910403AB
:104AA000982F9670963011F4886001C0877F0C941F
:104AB000C619EF92FF920F931F93CF93DF93EC01F0
:104AC0007B0164E670E088E70E94652D8C01EC0EA6
:104AD000FD1ECE15DF0561F017FD0AC0FE018491B1
:104AE00064E670E00E94E62D8C012196892B89F303
:104AF0000E946A2EC801DF91CF911F910F91FF9004
:104B0000EF900895EF92FF920F931F93CF93DF934F
:104B10007C018B010E942420811119C0E70101153D
:104B20001105A1F08091E80085FD0AC08091E800A0
:104B30008E778093E8000E942420882381F307C0A9
:104B400089918093F10001501109E9CF80E0DF9154
:104B5000CF911F910F91FF90EF9008951F93CF93E6
:104B6000DF93CDB7DEB7AA970FB6F894DEBF0FBEBE
:104B7000CDBFECEFF2E084E093E02091F1002193CF
:104B80008E179F07D1F78091FD02833009F463C02F
:104B900030F4813071F0823009F49DC0B4C08A30A5
:104BA00009F489C08B3009F46EC0893009F0ABC0BC
:104BB00020C08091FC02813A09F0A5C08091E800F4
:104BC000877F8093E8008091000390910103892BF7
:104BD00021F468E080EF92E003C060E080E090E0C4
:104BE00070E00E94E3218091E8008B778093E800D9
:104BF0008AC08091FC02813209F085C08091000357
:104C000090910103009719F0029709F07CC0809100
:104C1000E800877F8093E8008091E80082FD05C06E
:104C20008091FA028111F8CF6EC02091F30080913B
:104C3000F20090E0922B029731F48091F1008130E4
:104C400011F0863021F48091F1008093EF02809181
:104C5000E8008B7754C08091FC02813A09F053C080
:104C60008091000390910103892B09F04CC0809141
:104C7000E800877F8093E8008091E80080FFFCCF08
:104C80008091500137C08091FC028132E1F5809122
:104C9000000390910103892BB1F58091E800877F93
:104CA0008093E8000E9457208091FE02809350017B
:104CB0000E941F1A28C08091FC02813221F5809148
:104CC000E800877F8093E8000E9457208091FF02D0
:104CD0008093EE0218C08091FC02813AA1F4809189
:104CE000E800877F8093E8008091E80080FFFCCF98
:104CF0008091EE028093F1008091E8008E7780939E
:104D0000E8000E9457208091E80083FFDFC1809176
:104D1000FC029091FD02492F50E04A30510508F005
:104D2000D5C1FA01ED57FF4F0C941531803821F0B1
:104D3000823809F0CBC108C08091F8029091F90245
:104D4000992389F082600FC0809100038F708730B3
:104D500008F0BCC18093E9008091EB0085FB8827B7
:104D600080F91092E9009091E800977F9093E80015
:104D70008093F1001092F10070C1282F2D7F09F06F
:104D8000A5C1882319F0823061F0A0C18091FE0294
:104D9000813009F09BC1933009F080E08093F902E3
:104DA0002EC08091FE0281112AC0809100038F7075
:104DB0002FEF280F263008F089C18093E900209159
:104DC000EB0020FF1CC0933021F48091EB00806247
:104DD00014C09091EB0090619093EB0021E030E0E3
:104DE000A90102C0440F551F8A95E2F74093EA00DB
:104DF0001092EA008091EB0088608093EB001092A3
:104E0000E9008091E800877F8093E8000E945720A6
:104E10005DC181115BC11091FE021F778091E3009B
:104E20008078812B8093E3008091E800877F8093D6
:104E3000E8000E9457208091E80080FFFCCF80911D
:104E4000E30080688093E300111102C082E001C09A
:104E500083E08093FA023AC18058823008F036C16C
:104E60002091FE023091FF022C3D53E0350779F589
:104E700083E08A838AE289834FB7F894DE01139630
:104E800020E03EE051E2E32FF0E050935700E49140
:104E900020FF03C0E295EF703F5FEF708E2F90E030
:104EA000EA3010F0C79601C0C0968D939D932F5F96
:104EB000243149F74FBF8091E800877F8093E80055
:104EC0006AE270E0CE0101960E94E321B4C08091B5
:104ED000000390910103432F552743305105A9F05A
:104EE00068F44130510509F400C14230510509F020
:104EF000EDC08BE590E0EDEEF4E04BC041325105A2
:104F000029F14232510589F1E1C0C9019927813067
:104F10009105A1F058F0029709F0D8C0EAE5F5E054
:104F2000E4918E2F90E0EAE5F5E030C0E4E9F5E0A9
:104F3000E4918E2F90E0E4E9F5E028C0EEE7F5E09B
:104F4000E4918E2F90E0EEE7F5E020C083309105EC
:104F500008F0BCC0880F991FFC01E852FE4F019079
:104F6000F081E02D89E090E014C08330910508F0D5
:104F7000ADC0FC01EE0FFF1FEE52FE4F0190F0811D
:104F8000E02DDC01A153BE4F8C9190E0009709F415
:104F90009DC02091E800277F2093E8002091020324
:104FA000309103032817390708F4C90140E000973E
:104FB00089F12091FA02222309F43DC02530D9F16C
:104FC0002091E80023FD37C02091E80022FD2FC08A
:104FD0002091E80020FFEBCF4091F3002091F200F8
:104FE00030E0342B009759F02830310540F44491DB
:104FF0004093F100319601972F5F3F4FF3CF41E08F
:105000002830310509F040E02091E8002E77209308
:10501000E800CDCF4111CDCF0AC08091FA0288239C
:1050200051F0853041F08091E80083FD04C080910B
:10503000E80082FFF2CF8091E8008B778093E80050
:1050400045C0803809F042C08091E800877F809396
:10505000E8008091FB028093F1008091E8008E7758
:10506000D3CE811133C08091FE029091FF02992727
:10507000029764F58091E800877F8093E8001091A3
:10508000FE021093FB020E945720111106C080916E
:10509000E30087FD02C081E001C084E08093FA0252
:1050A00042E061EC81E00E94762042E261EC84E023
:1050B0000E94762042E261EC82E00E94762042E289
:1050C00060EC83E00E9476208091FA028091E800F3
:1050D00083FF10C08091E800877F8093E800809173
:1050E000EB0080628093EB0005C082E190E0E8E491
:1050F000F5E04FCFAA960FB6F894DEBF0FBECDBF36
:10510000DF91CF911F9108950895CF93C82F8111FA
:1051100002C06FEF01C061E283E290E00E94C13003
:10512000C11102C06FEF01C062E184E290E00E9411
:10513000C130C11102C06FEF01C064E285E290E0AE
:10514000CF910C94C13080E00E94852860E086E217
:1051500090E00E94C1300E94AE230E949E2381E015
:105160000C94852883E290E00E94AD30813281F476
:1051700084E290E00E94AD30823151F485E290E00B
:105180000E94AD3091E0843209F090E0892F01C097
:1051900080E081700895882311F0FA0101C0FB01BD
:1051A0000994E6E1F5E011828281846082830895AA
:1051B00060911905669570E04BE050E081E591E063
:1051C0000E942231892B19F481E0809317050E94F7
:1051D000651D9093110580931005809118058460DA
:1051E00080931805089530915D018091190580FF25
:1051F00016C0E0915C0163E0E69FF0011124E25EDD
:10520000FA4F539A8BB1877F9BB198602FB7F89470
:10521000AF0163E0369F400D511D112414C08091F1
:105220005E0190915F01891720F7E82FF0E0AF0150
:10523000440F551FE40FF51FE25EFA4F11821082F2
:1052400012828F5FF0CFE417F50789F0319168E0A3
:105250009BB9000000C037FF8BB9330F000000C0BE
:1052600000C000C08BB900C06A9591F7ECCF2FBF8A
:105270008FE594E00197F1F700C000000895FF92D8
:105280000F931F93CF93DF93EC01F12C0FEF10E0FE
:1052900060916001F61608F580915E012F2D30E0D7
:1052A000280F311DC901880F991F280F391F225E51
:1052B0003A4F40911C05493708F048E770E0C801B3
:1052C0000E940131962F8C8160911B05F99E800D03
:1052D00011240E94C92CF394DBCF0E94F3289A81F9
:1052E0008C8190FF02C08F5F01C081508C83DF9161
:1052F000CF911F910F91FF9008959091190590FF04
:1053000016C090915E0120915F01921770F4E92F11
:10531000F0E0DF01AA0FBB1FEA0FFB1FE25EFA4FAE
:105320008183608342839F5FF0CF0C94F3280895BC
:105330000F931F93CF93DF9300D01F92CDB7DEB7AB
:105340008C018091B40581110AC09E012F5F3F4FEF
:1053500048E76FEF0E94C92C8A818093B405F80159
:105360008481813051F028F0823061F44091B4059D
:105370000AC08091B40540E007C06091B40540E0E8
:1053800080E003C040E080E060E00E947D29F801F9
:10539000848190E0019663E070E00E940131848393
:1053A0000F900F900F90DF91CF911F910F91089563
:1053B0000F931F93CF93DF9300D01F92CDB7DEB72B
:1053C0008C018091190580FF13C040911C0549375D
:1053D00008F048E79E012F5F3F4F60911B05F801E1
:1053E00084810E94C92C4B8169818A810E947D2918
:1053F000F80184818F5F84830F900F900F90DF916D
:10540000CF911F910F910895E9E1F5E080818E7FA2
:1054100080830E94D128E6E1F5E082818160828369
:105420002FEF80E792E0215080409040E1F700C0EC
:1054300000000C94F3288091190580FF02C0869526
:10544000089580E0089580911905282F269530E071
:105450002115310519F48170826005C026313105AE
:1054600024F081708A628093190580911C05893728
:1054700018F088E780931C050895CF92DF92EF9291
:10548000FF926B017C010E94232AB701A60188E0EC
:1054900090E0FF90EF90DF90CF900C94D330AF92DC
:1054A000BF92CF92DF92EF92FF920F931F93CF9311
:1054B000DF9300D01F92CDB7DEB7082FF62E142F42
:1054C000E22E8091190580FF80C0E82FE695AE2F6F
:1054D000B0E0A252BE4F9C91909316058E7F823011
:1054E00081F4493708F048E79E012F5F3F4F6F2D49
:1054F000802F0E94C92C4B8169818A810E947D295D
:1055000041C0923019F400911A053CC09530D9F38E
:105510009B30C1F5EB508E2F8170D82EE695F0E0D0
:10552000E852F54FA590B490C12CBB246091600166
:10553000C61630F52C2D30E0A29EC001A39E900D22
:10554000B29E900D112470E00E949030802FD110F7
:1055500002C0860F01C0861B90915E01290F311D8C
:10556000A901440F551F240F351F225E3A4F412FCA
:10557000193708F048E76F2D0E94C92CC394D6CF85
:105580000E94F32880911A05081308C080911B051A
:10559000F81204C080911C05181729F08091180595
:1055A00082608093180500931A05F0921B051093F2
:1055B0001C05EE2051F06091190570911A0580913B
:1055C0001B0590911C050E943D2A0F900F900F9093
:1055D000DF91CF911F910F91FF90EF90DF90CF90CF
:1055E000BF90AF900895E9E1F5E0438121E1421BCE
:1055F00008F440E021E0628181810C944F2AE9E1C6
:10560000F5E0438121E1420F08F44FEF21E0628190
:1056100081810C944F2AE9E1F5E0628121E1621B6E
:1056200008F460E021E0438181810C944F2AE9E194
:10563000F5E0628121E1620F08F46FEF21E0438120
:1056400081810C944F2AE9E1F5E0818121E04381D9
:10565000628188500C944F2AE9E1F5E0818121E0D4
:1056600043816281885F0C944F2A80911D058823B5
:1056700019F0815080931D056091190570911A05EC
:1056800080911B0590911C050C943D2A80911D056D
:10569000833018F48F5F80931D0560911905709118
:1056A0001A0580911B0590911C050C943D2A909140
:1056B000190590FF3BC09170811102C0926006C035
:1056C000863110F09A6202C0880F982B90931905CA
:1056D00080911805816080931805662351F06091D0
:1056E000190570911A0580911B0590911C050E9467
:1056F0003D2A60911905669570E04BE050E081E528
:1057000091E00E942231892B19F00E94D12802C019
:105710000E94D82881E08093130520E040911C0569
:1057200060911B0580911A050C944F2A0895809171
:1057300019058695815009F485E161E00C94572B99
:105740008091190586958F5F863108F081E061E0D0
:105750000C94572BCF93DF93C82FD62F0E941B2A70
:105760008C1730F08D1720F4DF91CF910C94A02B83
:1057700061E08C2FDF91CF910C94572BE9E1F5E09C
:1057800083E0808311828FEF828388E78383148292
:10579000A6E1B5E012968C911297836012968C93D5
:1057A00060817181828193810C943D2A882309F460
:1057B00053C0682F823869F40E941B2381FF4CC0BC
:1057C00069E387E492E00E94D5220E94B51669E35E
:1057D0000EC0833891F40E941B2380FF3DC063E517
:1057E00087E492E00E94D5220E94B51663E587E423
:1057F00092E00E94C8220C94B516843869F40E9485
:105800001B2382FF29C067E487E492E00E94D5222F
:105810000E94B51667E4EBCF8CEF860F813A38F320
:1058200080E2860F883048F4677081E001C0880FFD
:105830006A95EAF70E94AE16DECF8BE5860F8330BD
:1058400020F480E090E00C940523685A673120F43E
:1058500080E090E00C94EF220895CF93882309F420
:1058600096C0C82F8238B1F40E941B2381FD8FC0DF
:1058700069E387E492E00E94D5220E94B5162FEFDB
:1058800081EE94E0215080409040E1F700C000009C
:1058900069E317C08338E1F40E941B2380FD77C0C1
:1058A00063E587E492E00E94D5220E94B5162FEFAF
:1058B00081EE94E0215080409040E1F700C000006C
:1058C00063E587E492E00E94C822CF910C94B5165C
:1058D0008438B1F40E941B2382FD59C067E487E439
:1058E00092E00E94D5220E94B5162FEF81EE94E03F
:1058F000215080409040E1F700C0000067E4E1CF14
:105900008CEF8C0F813A80F4E9E4F2E08FE492E0CE
:105910002191C217A1F18E179F07D1F76C2F87E451
:1059200092E00E94D522D1CF80E28C0F883068F4BB
:10593000C77081E090E001C0880FCA95EAF79091A6
:105940009F02892B80939F02C0CFEBE5EC0FE330E1
:1059500040F4F0E0E456FE4F808190E0CF910C944B
:105960000523C85AC73198F4EC2FF0E0EE0FFF1F63
:10597000E156FE4F80819181CF910C94EF226C2FE4
:1059800087E492E00E94C8220E94B516C7CFCF914B
:105990000895AF92BF92CF92DF92EF92FF920F9352
:1059A0001F93CF93DF93E82EF62EE901E42FF0E06A
:1059B000611106C0E352F54FE4914E2F2E2F71C0B6
:1059C000062F10E0E352F54F4491F42FC42ED12C52
:1059D00026E0829FC00111242FEF30E0B9010E9420
:1059E00090305BEA5603C001579F900D11248E0D35
:1059F000911D8E0D911D582F550F580FD901A01BC9
:105A0000B10BAC9DC001AD9D900DBC9D900D1124BE
:105A1000E92FF59ED0011124AB2FBB277901EA1A9B
:105A2000FB0AEC9CD001ED9CB00DFC9CB00D112448
:105A30005901A51AB108A09E7001A19EF00CB09E5C
:105A4000F00C1124EF2CFF242E193F092C9D80010E
:105A50002D9D100D3C9D100D1124212F62307105DC
:105A600091F048F461157105E1F061307105B9F408
:105A7000242F4B2F16C06430710569F040F066305A
:105A8000710579F00CC0242F492FE12F0AC0492F4E
:105A9000EF2F2B2F06C0292FE42F412F02C0292FD3
:105AA000EB2F49832883EA83DF91CF911F910F91D8
:105AB000FF90EF90DF90CF90BF90AF90089510923D
:105AC000B9008CE08093B80008959F92AF92BF9286
:105AD000CF92DF92EF92FF920F931F93CF93DF93BA
