:100000000C9427060C946E060C946E060C943A2FF2
:100010000C946E060C946E060C946E060C946E0690
:100020000C946E060C946E060C9435210C94EA1F09
:100030000C94C8220C946E060C946E060C946E06FA
:100040000C946E060C946E060C946E060C946E0660
:100050000C946E060C947B220C946E060C946E0627
:100060000C946E060C946E060C946E060C946E0640
:100070000C946E060C946E060C946E060C946E0630
:100080000C946E060C946E060C946E060C946E0620
:100090000C946E060C946E060C946E060C946E0610
:1000A0000C946E060C946E060C946E06BE0BC10B7F
:1000B000DD0BEA0BF10B110C140C480C650C020D56
:1000C000020D700C720C760C9A0CBB0CBE0CC10CA1
:1000D000E30C0312031236123612A912C813C81306
:1000E000C813C7123B134C134C13EF17EF1702182A
:1000F0000218F817021802180218EF17EF17FD1769
:1001000002180218FD17BF26E6268F28E6268F283C
:10011000322755278F284A285A2800DA0281FFD92A
:10012000F1DB20A4A62EAF00A0C000A1C800AED570
:1001300080A81FD300408D1420000004643214787E
:100140003C1E20202020005343522000202020204D
:1001500000434150200020202020004E554D20001B
:100160000A00556E646566696E65640041646A756F
:1001700073740A004C6F7765720A00526169736587
:100180000A0044656661756C740A004C6179657299
:100190003A200020000A000A00959600B5B60097A4
:1001A0009800B7B800808182838485868788898A91
:1001B0008B8C8D8E8F9091929394A0A1A2A3A4A5D5
:1001C000A6A7A8A9AAABACADAEAFB0B1B2B3B4C04C
:1001D000C1C2C3C4C5C6C7C8C9CACBCCCDCECFD097
:1001E000D1D2D3D4000000000000000000000000C5
:1001F00000000000000000000000000000000000FF
:100200000000000000000000007E0F00D4FFFFFF90
:10021000C70000007800000000000000002A2B2822
:1002200000000000000000000000000000000000CE
:1002300029000000002C1E342021222434262725EA
:100240002E362D3738271E1F202122232425263322
:1002500033362E37381F0405060708090A0B0C0D24
:100260000E0F101112131415161718191A1B1C1D36
:100270002F3130232D350405060708090A0B0C0D14
:100280000E0F101112131415161718191A1B1C1D16
:100290002F3130354C00AF00AE35001E001F00205E
:1002A000002100220000002B0014001A0008001595
:1002B0000017000000E00004001600070009000A13
:1002C000000000E1001D001B000600190005002FC2
:1002D0000003512900E200E300A55D105F2C004CF3
:1002E000002700260025002400230000002A001318
:1002F0000012000C0018001C000000340033000F36
:10030000000E000D000B00000028003800370036FA
:10031000001000110030004F00520051005000A6A4
:100320005D115F2C000100010001000100010001CE
:1003300000000035021E021F0220022102220200DC
:100340000001003A003B003C003D003E0000003947
:100350000040004100420043004400260201000129
:100360000001000100010001000100010001000185
:100370000001000100010000000100270226022503
:1003800002240223020000310230022F022E022D2D
:10039000023F00000001004D004A0001000100453D
:1003A000002702AE00A900AA00AB00010001000175
:1003B0000001000100010001000100010000003502
:1003C000001E001F00200021002200000001003A52
:1003D000003B003C003D003E000000390040004171
:1003E000004200430044000100010001000100013F
:1003F000000100010001002A0001000100010001CC
:1004000000010000004C00270026002500240023E6
:10041000000000310030002F002E002D003F0000B2
:100420000001004B004E000100010045000100AE3C
:1004300000A900AA00AB000100010001003A003B46
:10044000003C003D003E003F0000000100005CA8B1
:100450005D01000100010000000100010001000138
:10046000000100135C000001000100010001000117
:100470000001000100010001000100010001000174
:1004800000010045004400430042004100400000DC
:10049000004C00010001000100010001000000010A
:1004A0000001000100010001000A5C0000C95CC7F6
:1004B0005CC55CC25C010001000100CA5CC85CC68E
:1004C0005CC35C01000100010005010980A10185F8
:1004D0000319012AB700150126B70095017510818F
:1004E00000C0050C0901A101850419012AA002150B
:1004F0000126A002950175108100C00660FF096108
:10050000A1010962150026FF0095207508810209E6
:1005100063150026FF00952075089102C0050109AA
:1005200006A101050719E029E715002501950875C1
:100530000181029501750881010507190029FF1540
:100540000026FF0095067508810005081901290598
:10055000950575019102950175039101C009025B32
:1005600000030100A0FA09040000010301010009D1
:1005700021110100012240000705810308000A093A
:1005800004010002030000000921110100012222E0
:10059000000705820320000107050303200001096D
:1005A00004020001030000000921110100012232B0
:1005B000000705840320000A120100020000000861
:1005C00065320300010001020001220348006500BA
:1005D0006C0069007800200072006500760033002E
:1005E0002000350072006F007700730000001403D4
:1005F000790075007300680061006B006F00620095
:100600006F000000040309040000000000003E5BCE
:100610004F5B3E003E6B4F6B3E001C3E7C3E1C0021
:10062000183C7E3C18001C577D571C001C5E7F5EEA
:100630001C0000183C180000FFE7C3E7FF0000188B
:1006400024180000FFE7DBE7FF0030483A060E0001
:10065000262979292600407F05050700407F0525CA
:100660003F005A3CE73C5A007F3E1C1C0800081C17
:100670001C3E7F0014227F2214005F5F005F5F003A
:1006800006097F017F00006689956A0060606060EE
:10069000600094A2FFA2940008047E0408001020C9
:1006A0007E20100008082A1C0800081C2A080800E0
:1006B0001E10101010000C1E0C1E0C0030383E389E
:1006C0003000060E3E0E0600000000000000000094
:1006D0005F000000000700070000147F147F140073
:1006E000242A7F2A12002313086462003649562008
:1006F0005000000807030000001C224100000041D8
:10070000221C00002A1C7F1C2A0008083E08080042
:1007100000807030000008080808080000006060D1
:1007200000002010080402003E5149453E000042EE
:100730007F4000007249494946002141494D33003C
:100740001814127F10002745454539003C4A494995
:10075000310041211109070036494949360046490F
:1007600049291E0000001400000000403400000071
:10077000000814224100141414141400004122141F
:1007800008000201590906003E415D594E007C12E5
:1007900011127C007F49494936003E414141220007
:1007A0007F4141413E007F49494941007F09090994
:1007B00001003E41415173007F0808087F0000415D
:1007C0007F4100002040413F01007F08142241008A
:1007D0007F40404040007F021C027F007F040810E1
:1007E0007F003E4141413E007F09090906003E412C
:1007F00051215E007F0919294600264949493200E6
:1008000003017F0103003F4040403F001F20402084
:100810001F003F4038403F00631408146300030486
:10082000780403006159494D4300007F4141410074
:10083000020408102000004141417F00040201022F
:1008400004004040404040000003070800002054DE
:10085000547840007F2844443800384444442800F9
:10086000384444287F0038545454180000087E0946
:10087000020018A4A49C78007F08040478000044B7
:100880007D4000002040403D00007F1028440000D3
:1008900000417F4000007C04780478007C08040458
:1008A0007800384444443800FC18242418001824E4
:1008B0002418FC007C080404080048545454240004
:1008C00004043F4424003C4040207C001C20402085
:1008D0001C003C4030403C004428102844004C9010
:1008E00090907C004464544C440000083641000061
:1008F00000007700000000413608000002010204F9
:1009000002003C2623263C0003071F7FFFFFFEF862
:10091000F0C020F8FEFFFE79271F7FFFFFFEF8F0F2
:10092000C020F8FEFFFF7F3F3F7FFFFEF8F0C000D2
:10093000000000FFFFFFFFFFFF00000000000000BD
:10094000FF7F7F7FBFBFC0C0C0E0E0E0E0F0F0F01D
:10095000F878787C3C3CFEFEFEFFFFFF00000000C4
:100960000000000000008080BFBFDFDFEFEF00036A
:10097000071F7FFFFFFFFEF8E0C0E0F8FEFFFFFF6C
:100980007F1F07030000E0F0F0F0E0ECEEF7F370FB
:1009900020007C7C7C7E007E7E7E7F7F7F000080CE
:1009A000C0E07E5B4F5BFEC00000C000DCD7DEDE37
:1009B000DED7DC00C00000000000000000000000E6
:1009C000000000000000000000000000C1F3CFBFE5
:1009D0007FFFFFFCFBE7810000000080E3CF3FFFCB
:1009E000FFFFFCFBE7810000000081E7FFFFFFFF46
:1009F0003C0000FFFFFFFFFFFFF8F8FC7C7E7E3E1F
:100A0000FEFFFFFFFFFFF7F7F7FBFB7D7D7DBEBE1F
:100A1000BEDFDFE0E000FFFFFFFFFFFF00FCFC7C2C
:100A20007E7E3E3E1F1F1F0FFFFFFFFFFFFF0000E8
:100A300000000081E7FFFFFFFFFFFFFFFFFFE781EF
:100A40000000000000000F1F3F7F7F7F7F7F3F1E61
:100A50000C001F1F1F3F003F3F3F7F7F7F00307B09
:100A60007F7830202030787F3B0003000F7F0F0F0E
:100A70000F7F0F00030000000000000000000000D6
:100A8000000000000000000060707C7F7F7F7F1FFF
:100A90000601030F3F7F7F7E7C7C7E7F7F7F1F066A
:100AA00001070F3F7F7F7E7C7C7E7F7F3F0F0300AF
:100AB0000000007F7F7F7F7F7F000000000000003C
:100AC0007F7F7F7F7F7F7D7D3D3E1E1F1F1F0F0F1E
:100AD0000707070303007F7F7F7F7F7F7C7C7C7C11
:100AE0007C7C7C7C7C7C7C007F7F7F7F7F7F004068
:100AF00070787E7F7F7F3F0F0301030F3F7F7F7FF3
:100B00007E7870400000000000000000000000003F
:100B100000000000000000000000000000000000D5
:100B200000000000000000000000000000000000C5
:100B300000000000000000000000000000000000B5
:100B40000000000000000000FFAA7F5540000101E6
:100B5000010101010101010202020202020202027C
:100B6000030303030303030304040404040404054C
:100B70000505050506060606060707070707080810
:100B80000808090909090A0A0A0B0B0B0C0C0C0DC1
:100B90000D0D0E0E0E0F0F0F10101111111212135A
:100BA000131414151516161717181819191A1A1BD5
:100BB0001B1C1D1D1E1E1F20202122222324242534
:100BC0002626272829292A2B2C2D2D2E2F3031326D
:100BD00032333435363738393A3B3C3D3E3F40417D
:100BE00042434445464748494A4C4D4E4F50515365
:100BF00054555658595A5B5D5E5F6162646566681C
:100C0000696B6C6D6F7072737577787A7B7D7E809F
:100C100082838587888A8C8E8F91939596989A9CEB
:100C20009EA0A2A3A5A7A9ABADAFB1B3B5B7BABCFF
:100C3000BEC0C2C4C6C9CBCDCFD1D4D6D8DBDDDFD0
:100C4000E2E4E7E9EBEEF0F3F5F8FAFDFF0011243A
:100C50001FBECFEFDAE0DEBFCDBF04B603FE27C074
:100C60008091EF059091F005A091F105B091F2050A
:100C70008730904BA740B04BD1F41092EF05109203
:100C8000F0051092F1051092F20514BE84B7877F2B
:100C900084BF0FB6F894A895809160008861809316
:100CA0006000109260000FBEE0E0F8E3099511E0EB
:100CB000A0E0B1E0E0EDF8E602C005900D92A63F9D
:100CC000B107D9F725E0A6EFB1E001C01D92AF3E14
:100CD000B207E1F70E9470060C9466340C94000091
:100CE000CF93DF93CDB7DEB7E2970FB6F894DEBFB0
:100CF0000FBECDBF84B7877F84BF0FB6F894A89589
:100D000080916000886180936000109260000FBE47
:100D100090E080E80FB6F8948093610090936100B2
:100D20000FBE85B7806885BF85B7806885BF86EAB6
:100D30009AE19093F7018093F6010E942E200E9481
:100D4000D4208091E20084608093E20078948091C6
:100D50000A038823A1F01091E9001F709091EC0024
:100D6000892F817090FD80E8182B1092E900809106
:100D7000E80083FD0E94D7251F701093E90082E0F0
:100D800084BD93E095BD9AEF97BD80936E0010925D
:100D9000F8011092F9011092FA011092FB010E94E1
:100DA000DB28811102C00E94CC2822982A9A579AE7
:100DB0005F9825E02A95F1F7000083B182FB882730
:100DC00080F957985F9A30EA3A95F1F780930001DD
:100DD00080910001882321F010925C0180E203C021
:100DE00080E280935C0180935D010E94A51C8111CB
:100DF0000E94F42E8091000180910001882311F05F
:100E000090E001C095E09093070285E0891B8093F4
:100E1000060205E711E0D8018D918D018F3F11F099
:100E20000E943D1DB1E00A371B07A9F70FE711E04B
:100E3000F80181918F018F3F11F00E943D1DF1E07B
:100E400006381F07A9F78AE0E4E4F2E0DF01282F63
:100E50001D922A95E9F7ECEFF1E0DF011D928A95EA
:100E6000E9F70E946B16811102C00E94761682E09B
:100E700090E00E94D630809339020E945A169093D7
:100E80001302809312020E94A01DEFE3FCE9319748
:100E9000F1F700C000000E94A01D8091440280FF75
:100EA00008C06FEF7FEF80E090E00E9408310E9461
:100EB0006A2283E090E00E94D6300E94531A0E947A
:100EC000A51C811102C00E94F72E1092340280E806
:100ED000809315030E94882D6DE070E08DE291E013
:100EE0000E948225892B09F043C08091340263E07F
:100EF00070E081FD3AC08AE291E00E948225892B50
:100F0000B9F56DE070E08AE191E00E948225892BBD
:100F100079F50E94B022DC01CB01805A9541AF4F98
:100F2000BF4F8093E6029093E702A093E802B0934C
:100F3000E902E8E1F3E080E092E0DF019C011D922C
:100F400021503040E1F7F0931F05E0931E058FEF2D
:100F50009FEF909317038093160381E08093EB0239
:100F60008093EA021092350203C087E291E0C5CF78
:100F700080910802811138C00E946B16811104C053
:100F80000E9476160E94E72B88E090E00E94DE30F7
:100F90006093290570932A0580932B0590932C0567
:100FA000809128058360809328056E7F71F40E94EC
:100FB000E72B88E090E00E94DE3060932905709373
:100FC0002A0580932B0590932C050E944C2A0E94A1
:100FD000FA288091290580FF04C060E086950E9470
:100FE000802B81E08093080226982E9A25982D9ACE
:100FF00083B186FB882780F91D9B02C092E001C067
:1010000090E0892B809311029091000181E0982754
:1010100090931002891B8093090281E091E09093E4
:10102000F2028093F10210E4612ECE0101967C0160
:101030001E019DE0290E311C80910A03853009F0C4
:1010400045C000E112E180910A03853009F03AC001
:1010500080910A03843029F10E943E241092F50207
:10106000A8E1B0E00FB6F894A895A09360000FBE79
:101070006092600083B7817F846083BF83B78160A3
:1010800083BF7894889583B78E7F83BF0FB6F8941B
:10109000A895809160008861809360001092600044
:1010A0000FBE80910903882309F4CDCF0E94A01DB3
:1010B000E4E4F2E081918111CDC4B2E0EE34FB07AB
:1010C000C9F7C1CF0E94571A0E9444230E94A01D55
:1010D000C82E81110E94B022E4E4F2E0FEA7EDA741
:1010E000EAE3F2E0A4E4B2E000E010E0902EAD907C
:1010F00081918A2549F1B12CDD24D394982F9D212B
:10110000F1F00E94A51C882399F0B9A29AA2AD2003
:1011100081E009F480E08BA30E94BC228160782FDB
:101120009DA38CA349A15AA16BA18DA10E94490D39
:10113000F801E65CFD4F8081D826D0821AC0B394B6
:10114000DD0C27E0B212DACF0F5F1F4F0A30110516
:1011500069F68FEF8EA38FA318A60E94BC22816030
:10116000782F9AA789A74EA15FA168A58AA50E949A
:10117000490D80912705882309F483C080912605B5
:10118000E0912905E695E81BE0932205823059F4A9
:10119000F0E0E15CFE4FE4910E2F10E0B1E0AB2EE9
:1011A000BAE2BB2E1FC0853061F4E695F0E0E45C46
:1011B000FE4FE4910E2F10E0A8E6AA2EA9E2BA2E67
:1011C00011C0853149F4EAE3F1E005911491F1ECA5
:1011D000AF2EF9E2BF2E06C000ED17E0EDEAAE2E0D
:1011E000E8E2BE2E80912305882361F0109223054A
:1011F0000E94971D9093210580932005109225054C
:10120000109224050E94971DE0912005F091210580
:101210009C012E1B3F0B2F3F3F4798F520910C025E
:101220002223B1F010920C0220910A0230910B029D
:10123000821B930B8F3F9F4758F4205D3A483093B1
:101240000B0220930A02809128058860809328056C
:1012500080902405909025050E0F1F1F10932105E7
:101260000093200580E295E0F50109958091240521
:1012700090912505892B29F4892819F081E0809324
:101280000C0280911102E82FEE0FEE0FE093110295
:1012900083B186FB882780F98BA71CA61D9B03C002
:1012A00082E090E002C080E090E02BA53CA5822B7C
:1012B000932B8E2B80931102109110028F70E82FC8
:1012C000F0E0EA57FE4F908180910F02890F8093E2
:1012D0000F0284308CF0E12FF0E0E35FFD4F80815E
:1012E0008F5F8083111102C08BE403C0113031F491
:1012F00082E50E94881A02C0D12C02C0DD24D3945A
:1013000080910F028D3F94F4E12FF0E0E35FFD4FF9
:10131000808181508083111102C08EE403C011309E
:1013200019F481E50E94881ADD24D39480910F027C
:10133000082E000C990B64E070E00E942A31809323
:101340000F02D1100E9458168091EB02882309F4F5
:10135000BEC180913602909137020E94A122C297AD
:1013600008F4B1C00E94BC229093370280933602E9
:1013700088E193E090931F0580931E050E94A51CB1
:10138000882309F46BC08091120282FD0BC089E9A9
:1013900091E00E94452587E991E00E9445258CE96E
:1013A00091E00AC08FE991E00E94452585E991E02E
:1013B0000E94452582EA91E00E94452583E991E05B
:1013C0000E9445258BE891E00E94452580911403F9
:1013D0000E94F10D813081F038F0823041F083308D
:1013E00071F48CE691E005C082E891E002C08BE7E1
:1013F00091E00E9445250AC084E791E0FACF82E699
:1014000091E00E94452581E00E947E2480E691E0E3
:101410000E9445250E94442381FB002700F982FB9E
:10142000112710F980FF03C08BE591E002C086E52B
:1014300091E00E944525002319F081E591E002C06A
:101440008CE491E00E944525112319F087E491E096
:1014500002C082E491E00E94452535C085EA91E012
:101460000E9445258091290580FF2DC00E94442AB5
:10147000382F80912C0521E1622F0E941E311F928E
:101480008F9380912B050E941E311F928F93809124
:101490002A058695869586951F928F931F923F9376
:1014A00081E691E09F938F931F928EE18F93FF923D
:1014B000EF920E946E31C7010E9453250FB6F89437
:1014C000DEBF0FBECDBF8091EB02882309F4E4C0DC
:1014D00020911603309117032115310509F4DCC062
:1014E000809135028111D8C0482E512CAA24A39492
:1014F000B12C082E02C0AA0CBB1C0A94E2F7A90169
:101500004A215B21452B11F48F5FEECF909134027D
:10151000920165E0220F331F6A95E1F790FD12C03A
:101520008295880F807680930F01220F232F221F30
:10153000330B319520931201815E8093100110923C
:10154000130112C045E0369527954A95E1F7220F21
:10155000220F220F20930F0110921201295F209376
:10156000100183E08093130124E630E047E050E06F
:101570006DE071E088E70E943F2E892B09F08CC056
:101580008091340280FD23C0C20125E0880F991F9D
:101590002A95E1F7AC01485E5C4F04E610E020E2DA
:1015A00030E060E488E70E94662E892B09F074C061
:1015B0000E945824A094B094809116039091170330
:1015C000A822B922B0921703A092160365C080E248
:1015D000E4E1F2E0DF011D928A95E9F785E0440C31
:1015E000551C8A95E1F7EAE9F1E0FAABE9AB66E967
:1015F00071E0A9A9BAA98D91BAABA9ABFB019191F0
:10160000BF01A201490F511D485E5C4F90E08C5E06
:101610009D4FFC0107E09F01281B390B8824839410
:1016200001C0880C2A95EAF758AB4FA7912CAFA5BB
:10163000B8A91D91B8ABAFA71821202F2919277081
:10164000722E022E000C330BB12F01C0BB0F7A9407
:10165000EAF77B2E3195219531092770332701C098
:1016600016952A95EAF7712A1081712A708293944F
:1016700028E09212DCCF015031960F3F61F689A924
:101680009AA98E59914009F0B4CF04E610E020E207
:1016900030E044E152E085CF8091EA028823B9F03E
:1016A0000E94B0220091E6021091E7022091E80228
:1016B0003091E902DC01CB01801B910BA20BB30B33
:1016C0008F3F9F4FAF4FBF4710F40E943E24C11081
:1016D00001C0D1100E9458240E94442390913802E6
:1016E000891721F00E9444238093380280910A03D5
:1016F000843009F0A1CC83E08093E9008091E80078
:1017000082FF9ACC8091E80085FF22C00E944D2084
:1017100081111CC000E210E09E012F5F3F4F690164
:1017200008C08091F100D6018D936D01015011091F
:1017300069F08091E80085FDF4CF8091E8008B7717
:101740008093E8000E944D20882399F391E001C026
:1017500090E08091E8008B778093E800992309F46A
:101760006BCCE9818E2F90E0FC013197E331F105DC
:1017700008F048C1EA5AFF4F0C943E311A8289E0C2
:10178000A2C08A81823009F47BC1833051F081305C
:1017900009F038C10E94B0229B838C837D836E83C5
:1017A00033C1FE013396ADA5BEA58D91BEA7ADA7F1
:1017B00081932E163F06B9F727C18A81823009F03E
:1017C00021C16B817C818D819E810E94443186E2A2
:1017D00090E024C04C816B818A810E940B249D8300
:1017E00056C1CD80DE80DC24CD24DC248C810B81AD
:1017F0009A81BEE00B9F80011124ECE89E9F000DB2
:10180000111D1124080F111D080F111D6D2DC80188
:1018100087960E94EA306C2DC80188960E94EA30B3
:10182000F3C00E94D723F0C08A818138B1F050F410
:10183000803809F0E9C020E04B8160912B05809150
:101840002A0523C08238E9F0833809F0DDC020E0A2
:1018500040912C056C818B8118C060E08B810E94C7
:10186000802B8B81811103C00E942D2ACDC08091D5
:10187000290581608093290560E086950E94802B70
:10188000C3C08B8180932D05BFC00E94782ABCC045
:101890008A81813899F030F4803809F0B5C08091A0
:1018A0002C0511C0823869F0833809F0ADC08091F1
:1018B0002A058B8380912B058C83A6C00E94442A25
:1018C00002C080912D058B839FC060912905709186
:1018D0002A0580912B0590912C050E94662A94C0C0
:1018E00080E14DC081E08A8389EAEDCF0A811B81C6
:1018F000102701271027AC80B12C6701C801895A35
:101900009D4F96012E193F092A153B0508F07CC012
:10191000093AF1E01F0730F40E94D630D601149640
:101920008C9302C0F60114820F5F1F4FFFEFCF1A96
:10193000DF0AE4CF0A811B81102701271027AC8022
:10194000B12C6701C801895A9D4F96012E193F0994
:101950002A153B0508F058C0093A21E0120728F47F
:10196000D60114966C910E94EA300F5F1F4FBFEFB3
:10197000CB1ADB0AE7CF0E94C72346C084E08A83E4
:1019800043C00A811B81102701271027AC80B12C8E
:101990006701C801879696012E193F092A153B0554
:1019A00098F50033E2E01E0730F40E94D630D601ED
:1019B00014968C9302C0F60114820F5F1F4FFFEF45
:1019C000CF1ADF0AE6CF0A811B81102701271027D3
:1019D000AC80B12C6701C801879696012E193F098A
:1019E0002A153B0588F4003322E0120728F4D601BB
:1019F00014966C910E94EA300F5F1F4FBFEFCB1A15
:101A0000DB0AE9CF8FEF898380910A03843009F0E4
:101A100013CB1091E9001F709091EC00892F817019
:101A200090FD80E8182B82E08093E9008091E80027
:101A300080FF0CC040E050E060E270E0C7010E940F
:101A4000AB258091E8008E778093E8001F7010939B
:101A5000E900F2CA09BD19BD09B400FEFDCF8091AD
:101A6000D8008F7D8093D8008091E00082608093C1
:101A7000E0008091E00081FDFCCF0E94571AE3CA8C
:101A800086E290E00E94D6301B821C821D828E83EB
:101A9000BBCF1F93CF93DF93CDB7DEB767970FB65A
:101AA000F894DEBF0FBECDBF4B8B5C8B6D8B7E8BF6
:101AB0008F8B61111092AC0286E09E01235F3F4F35
:101AC000D901E82F1D92EA95E9F795E0FE0173969A
:101AD000D90101900D929A95E1F79C894E895F8911
:101AE0007B897D879E876F87598B488BF901DE0143
:101AF000179601900D928A95E1F7CE0107960E9404
:101B0000061881113EC086E0FE013796DE0111966F
:101B100001900D928A95E1F7FF81E8856A857B85C2
:101B20006115710531F0EF3F31F481E0FF3F19F4A9
:101B300003C081E001C080E080FD23C020917802D5
:101B400030E0C9010196877099274091A90250E0C1
:101B50008417950779F1F983EA837D836C8396E096
:101B6000929FD001939FB00D1124A758BD4FFE0145
:101B7000319601900D929A95E1F7809378020E9438
:101B8000281716E08091A902909178028917F9F040
:101B9000189FC001112487589D4F0E940618882362
:101BA000B1F08091A90290E0019687709927809307
:101BB000A902E8CF0E94571A109278021092A90247
:101BC000E2E7F2E086E0DF011D928A95E9F7679689
:101BD0000FB6F894DEBF0FBECDBFDF91CF911F913E
:101BE0000895982F92959F7019F0892F24E001C0D5
:101BF00020E0982F9695969511F02E5F892F982FBB
:101C0000969509F02F5F822F08953F924F925F9231
:101C10006F927F928F929F92AF92BF92CF92DF92FC
:101C2000EF92FF920F931F93CF93DF93CDB7DEB761
:101C300029970FB6F894DEBF0FBECDBFFC0180819F
:101C4000918123813481232B31F09F3F31F491E046
:101C50008F3F19F403C091E001C090E090FD87C66A
:101C60007F0185E0DE01119601900D928A95E1F7E2
:101C7000F701228189819A81222349F00E949E17CF
:101C8000182F682F89819A810E94D31903C00E945E
:101C9000A719182F69817A81812F0E9431248C0124
:101CA000F7018281882309F4F2C0980122513F454F
:101CB0002031310508F01DC18FEF93E00E94D6302E
:101CC0008111EFC0025137E5832E32E0932E0023BD
:101CD00079F08114F4E09F0609F4E3C0C4010E9486
:101CE000D630811101C001502FEF821A920AEFCF36
:101CF0001E821F8218861986442443942AE0322EBD
:101D000084010F5F1F4FC4010E94D6308E831F8253
:101D1000882309F4C6C09FEF980F933060F48F8337
:101D20004E8232E0830E911CC8010E94D630888713
:101D3000811102C0B6C048018E010A5F1F4FF80131
:101D400020812223E9F2213009F04CC081818130C9
:101D500049F46801F2E0CF0ED11CF80182810E94A3
:101D6000881A0AC0823051F46801F2E0CF0ED11C0B
:101D7000F80182810E94562C860186C0833049F486
:101D80006801F2E0CF0ED11CF80182810E94FF2B86
:101D9000F3CF843019F00F5F1F4F76C0F801228116
:101DA0000E5F1F4F80E090E030E0205331092A3071
:101DB000310568F4389EA001399E500D1124C901E7
:101DC000840F951F0F5F1F4FF8012081EDCF009703
:101DD00009F45AC0EFE9FFE03197F1F700C00000C5
:101DE0000197F5CFE22FF0E0EB5EFD4F5490822F8C
:101DF00086958695869590E0FC01EB5FFD4F64909B
:101E00002770712C022E02C0759467940A94E2F731
:101E1000F1E06F227724FC01EB50FE4FA490B12C2F
:101E2000022E02C0B594A7940A94E2F731E0A322EF
:101E3000BB24FC01EB51FE4FC490D12C02C0D594C1
:101E4000C7942A95E2F781E0C822DD246114710469
:101E500019F081EE0E94562CA114B10419F086EEFF
:101E60000E94562C852D0E94881AAB2819F086EE08
:101E70000E94FF2B672819F081EE0E94FF2BCD28CE
:101E800019F08CE20E94881A0F5F1F4F58CF003163
:101E90003FE5130709F0B1C481E00E94021A0E94D5
:101EA00077258091AA02877009F461C5F7018281C4
:101EB000882309F45CC58091130282FD58C582E035
:101EC00029960FB6F894DEBF0FBECDBFDF91CF913C
:101ED0001F910F91FF90EF90DF90CF90BF90AF9048
:101EE0009F908F907F906F905F904F903F900C9459
:101EF0000E1A0031FFE51F0711F481E005C0013122
:101F00002FE5120721F482E00E94481AC8CF063A52
:101F1000FDE51F0789F4882359F08091120282FFA2
:101F200003C00E946B25BDCF80E90E94562CB9CF1B
:101F300080E90E94FF2BB5CF083A2DE5120709F082
:101F400041C1882359F00E94E72B809129058160C7
:101F50008093290561E086950E94802BF70182819C
:101F6000882309F4A2C11092EE020330FDE51F0799
:101F700058F40A3F2CE5120760F4C80182509C45D2
:101F8000449708F07CC105C001363DE5130709F010
:101F900076C10E945A169093130280931202003168
:101FA0008CE5180709F4CAC008F041C00830ECE518
:101FB0001E0709F4A4C0F0F404302CE5120709F45C
:101FC0008CC068F402308CE5180709F482C0033035
:101FD0001C4509F0E7C0809112028260E1C0063022
:101FE000ECE51E0709F483C008F085C08091120259
:101FF0008860D6C00C302CE5120709F490C068F454
:102000000A308CE5180709F47EC008F084C00E94ED
:10201000571A809112028068C3C00E30ECE51E078B
:1020200009F481C008F086C08091120294C00C3F70
:102030002CE5120709F47BC038F504318CE518074C
:1020400009F49AC058F40231ECE51E0709F47AC08D
:1020500008F07EC0809112028F7BA2C00A3F2CE55F
:102060001207F1F108F03FC005311C4509F09AC094
:102070008091120282FB222720F991E0922790FBA7
:1020800082F990FB83F98CC001159DE5190709F4CD
:1020900067C050F4809113020E3FFCE51F07C1F1A9
:1020A00008F05BC08D7F65C002303DE5130709F481
:1020B00071C008F46DC001361D4509F073C08091F0
:1020C000120284FB222720F991E0922790FB84F9E9
:1020D00067C080911202816063C08091120216C0B5
:1020E0008091130216C080911302826042C08091D9
:1020F0001202806155C080911202806251C08091AD
:10210000120280644DC0809112028860846048C0D1
:10211000826081602EC0809112028E7F41C08091CA
:1021200012028D7F3DC080911202877F39C080915D
:10213000130214C0809112028F7E32C0809112026D
:102140008F7D2EC00E94571A809112028F7728C06F
:1021500080911202877F8B7F23C08D7F8E7F09C085
:1021600080911302982F909591708E7F892B90FB10
:1021700081F98093130216C00E94571A80911202AF
:1021800087FB222720F991E0922790FB87F908C06E
:1021900061E001C060E08EE090E00E94EA3002C0A1
:1021A00080931202609112021091130284E090E079
:1021B0000E94EA30612F82E290E00E94EA300E94A1
:1021C000571A6FCE053A3DE5130751F4882331F0D5
:1021D0008091120282FDA5CE81E9A7CE81E9A9CE28
:1021E000033F8CE5180749F406E221EE40EE63EF69
:1021F0007CE5C7010E94542354CE043F9CE5190797
:10220000F8F4083DECE51E0731F407E225EE45EE53
:1022100068ED7CE5EECF093DFCE51F0731F408E2EF
:1022200021E045EE69ED7CE5E4CF073D2CE51207A2
:1022300009F094CE06E221EE41EE67ED7CE5D9CFC0
:10224000053F3CE5130731F406E221EE42EE65EF6F
:102250007CE5CFCF053F8CE5180730F407E225EE8B
:1022600044EE64EF7CE5C5CF063F9CE5190709F015
:1022700075CE07E225EE46EE66EF7CE5BACF063175
:10228000ECE51E0721F58091AD028A7A91E009F410
:1022900090E090934E02882311F065E301C069E25B
:1022A0008FE492E00E94FE220FC00631ECE51E078B
:1022B00009F040C080914E02882309F4A5C265E36D
:1022C0008FE492E00E94F1220E94ED16EACD0A35D9
:1022D0009DE5190749F158F40115FCE51F07B1F018
:1022E0000E3D1C4509F042C00E947616DACD0B3532
:1022F0003DE51307D9F00C351D45C1F5809113025A
:1023000082FB882780F991E0892711C00E94571A23
:102310009FEFE4E3FCE09150E040F040E1F700C0C3
:1023200000000E946A22BDCD81E001C080E00E94D1
:102330002B1A1CC08091AD0282720B3CECE51E078B
:1023400009F4F9C208F085C2063C2CE5120709F42D
:10235000DEC208F069C2033C9CE5190709F4CDC24E
:1023600008F054C2023C1C4509F49DC2F701828169
:1023700000811181882349F0C8010E949E17D82E40
:10238000682FC8010E94D31904C0C8010E94A71970
:10239000D82EB8018D2D0E9431240E94CF14B82E62
:1023A000192F982EF7010281A580A2949FE0A922FF
:1023B0008091AA028770B9F00023A9F0812F807F55
:1023C000803421F080E28B0D883068F08091130218
:1023D00082FD09C082E00E940E1A8091AA028770D5
:1023E000DD24D3948111D12CC12EC2948FE0C82258
:1023F0008C2D90E08C30910508F0CAC1FC01E759A2
:10240000FF4F0C943E31812F807F1F70882311F085
:102410001295107F0023B9F0112309F4A7C180E2BF
:102420008B0D883010F0911006C08091AD02182BF2
:102430001093AD0205C08091AC02182B1093AC0232
:102440000E94ED1693C18B2D0E94FF2B112309F4DE
:102450009FC180E28B0D883080F1992071F1109539
:102460008091AC0218231093AC022AC0812F807F88
:102470001F70803211F01295107F8B2D992021F062
:10248000F1E09F16D9F149C08091130282FF1BC071
:10249000002369F0112339F08091AD02182B1093BD
:1024A000AD020E94ED1680E00E94562C71C180E0C2
:1024B0000E94FF2B112309F46BC1812F0E94E616A5
:1024C0000E94ED1665C1002381F08091AE02AA2022
:1024D00051F021E0A21207C0182B181709F458C1B7
:1024E0001093AE0255C1812B10C0AA2021F031E01B
:1024F000A31609F44DC10E94E01627C0002341F045
:1025000085E08A1508F444C1812F0E947E1A40C1DB
:1025100094E09A1508F43CC118C0002349F0AA20A1
:1025200099F3F701858180FF21C18F708583ECCFFE
:10253000AA2059F0893309F028C1FFEF27EE33E0D4
:10254000F15020403040E1F71EC1812F0E94771AE0
:102550001FC1812F86958695837019F0813061F0B7
:1025600017C1002321F08B2D912F937002C080E0C2
:1025700090E00E942E2312C1002321F08B2D912F79
:10258000937002C080E090E00E94182307C1812F61
:102590008370A9F5011100C14B2D429546954770F6
:1025A000440F440F8B2D8F7090E09C01042E01C0CE
:1025B000220F0A94EAF7B4FE08C08FE090E001C051
:1025C000880F4A95EAF7809501C080E01695169528
:1025D0001370123069F088F49091AF02113019F045
:1025E000822B892302C0922B892B0E94531AD4C0BC
:1025F000822B9091AF028927F8CF822BF6CF002350
:1026000019F0812F817001C08695882309F4C4C018
:102610004B2D429546954770440F440F8B2D8F707C
:1026200090E09C01042E01C0220F0A94EAF7B4FE48
:1026300008C08FE090E001C0880F4A95EAF78095C6
:1026400001C080E0169516951370123059F078F499
:1026500090911403113019F0822B892309C0922B19
:10266000892B06C0822B90911403892701C0822BED
:102670000E94FE1991C01F70002339F0812F0E9423
:10268000481A8B2D0E947E1A87C08B2D0E94771AC4
:10269000812F0E94021A80C08B2D92EF991679F13A
:1026A000991538F0E0EF9E1659F0F1EF9F1611F1F1
:1026B00059C023EF921651F134EF9316B9F052C07E
:1026C000002379F084E08A1508F462C01F7181E06C
:1026D00090E001C0880F1A95EAF7909114038927BA
:1026E0001FC095E09A1508F453C0F0CF80911302F3
:1026F00082FF19C0002329F0812F8F7126C000238B
:10270000D9F3812F8F710E94021A42C0002339F041
:102710001F7181E001C0880F1A95EAF701C080E0BF
:102720000E94FE1935C0002399F01F71812F0E946D
:10273000481A8091130282FD07C0E8E01E9FC00185
:10274000112483608093AA02812F0E94481A20C01E
:1027500081E00E940E1AF1E0FA15D0F482E00E94A6
:102760000E1A16C0002321F0AA2031F28B2D9CCE28
:10277000AA2039F2893349F42FEF37EE83E0215054
:1027800030408040E1F700C000008B2D0E94FF2BFD
:1027900088EF8C0D843010F40E944423DD2009F46E
:1027A000E6C08091AA0280FDE2C0F7011282859501
:1027B000859585950E94481AC7010E94050E809153
:1027C000AA0285958595859529960FB6F894DEBF62
:1027D0000FBECDBFDF91CF911F910F91FF90EF9072
:1027E000DF90CF90BF90AF909F908F907F906F9031
:1027F0005F904F903F900C94021A01319FE51907AA
:1028000009F085CB82E049CB69E25ACD043C2CE546
:10281000120709F477C0053C1C4509F0A7CD4CE42C
:102820005BE265E57BE290C0083C9CE5190709F492
:1028300078C008F471C0093CFCE51F0709F476C0B4
:102840000A3C1C4509F092CD48E25BE26CE17BE278
:102850007BC0003D3CE5130709F47CC098F40D3CB7
:10286000ECE51E0709F473C008F46AC00E3C2CE5C1
:10287000120709F416CB0F3C1C4509F077CD64E034
:1028800082E06DC0043D8CE5180709F466C008F4C9
:1028900008CB053DECE51E0709F464C00D351D4568
:1028A00009F4FFCA63CD8091290580FF20C08E7F87
:1028B000809329056091290570912A0580912B0547
:1028C00090912C050E94662A0E94FA288091280582
:1028D0008160809328052FEF30E782E0215030405F
:1028E0008040E1F700C000000E941C29DACA816024
:1028F0008093290561E0869537C040EC5BE269EC86
:102900007BE222C049EC5BE260EC7BE21DC045E566
:102910005BE26CE47BE218C044E35BE260E47BE2F0
:1029200013C040E45BE264E37BE20EC04CE15BE297
:1029300068E27BE209C04EE55BE26FE67BE204C041
:102940004FE65BE26EE57BE20E94F428AACA61E0F2
:1029500081E00AC06AE085E002C064E18BE00E9489
:10296000D32B9FCA61E085E10E94802B9ACA2996E9
:102970000FB6F894DEBF0FBECDBFDF91CF911F9190
:102980000F91FF90EF90DF90CF90BF90AF909F900E
:102990008F907F906F905F904F903F900895CF936E
:1029A000DF938238910569F1B0F48133910509F420
:1029B0006FC048F48932910509F465C08A329105E7
:1029C00009F46BC08AC08533910509F457C0893377
:1029D0009105B9F082C0833E910571F138F4803ED3
:1029E0009105B1F0823E910511F177C0863E9105C7
:1029F000B9F1873E9105C9F1843E910509F06DC09A
:102A000024C02091120220FD53C021FD51C065C099
:102A10008091120280FD46C08091130280FF48C061
:102A20008091120284FD3FC183EE90E03EC180910F
:102A3000120282FF3AC0F4CF8091120282FD35C0AB
:102A40008091130280FD34C0EBCF8091130281FF8F
:102A500035C08091120284FD26C187EE90E025C129
:102A60008091120283FF27C0F4CF8091120283FD70
:102A700022C08091130281FD21C0EBCF8091120210
:102A800085FD1FC021C08091120285FD1DC019C0A7
:102A90008091120286FD1BC01DC08091120286FD2E
:102AA00019C015C089E390E000C182EE90E0FDC03E
:102AB00080EE90E0FAC086EE90E0F7C084EE90E001
:102AC000F4C089E290E0F1C085E390E0EEC08AE2D4
:102AD00090E0EBC081E390E0E8C0811532E5930718
:102AE00008F069C0811541E5940728F0982F8827E0
:102AF000816F906ADAC0883E910568F5803E910545
:102B000008F0D3C0883A9105B8F4853A910548F0A9
:102B1000855AE82FF0E0E256FE4F808190E0906405
:102B2000C4C08130910509F4BBC008F4BCC0843036
:102B3000910508F4B8C0B9C08F3B910508F0B3C047
:102B4000885AE82FF0E0EE0FFF1FEF55FE4F80810F
:102B500091819464AAC0811520E59207F0F09C0150
:102B600074E0369527957A95E1F7922F9370482F68
:102B7000437021E030E002C0220F331F4A95E2F794
:102B80003C68392B8F70982F9695969540E2949FCC
:102B9000C0011124822B932B88C0811530E4930748
:102BA00018F09F70906A81C09C013A9521153F41B1
:102BB00008F47BC078C0EC01C11586E5D807E8F5BC
:102BC000C11525E5D20748F08C2F0E94541D8F7146
:102BD00090E0982F8827906268C0C11534E5D3072C
:102BE00028F09C2F8827846F906A5FC0AE014370E5
:102BF00055272C2F26952695C115D34578F481E0CD
:102C000090E002C0880F991F4A95E2F740E2249FA6
:102C100090011124822B932B9C6847C081E090E0A7
:102C200002C0880F991F4A95E2F740E2249F900165
:102C30001124822B932B9A6838C0C1152AE5D2073C
:102C4000F8F4C11539E5D30790F08C2F8F700E94EE
:102C5000541D94E0D695C7959A95E1F7CF70D0E0D2
:102C6000DC2FCC27D0699E01282BC9011EC0C115BD
:102C700048E5D407C0F09C2F8827806F906A15C064
:102C8000CE0190568115904270F48D2F8F710E9465
:102C9000541D282F2F71CE0199279062922B05C0C9
:102CA00081E090E002C080E090E0DF91CF91089554
:102CB0000C94B022CF9384E090E00E94D630C82FCD
:102CC00082E290E00E94D6302C2F30E0A901582BF0
:102CD000CA01CF91089580E090E00E94E430893EDF
:102CE0009E4F11F40C94DB2880E0089569EE7EEF8E
:102CF00080E090E00E94083160E082E090E00E9475
:102D0000EA3060E083E090E00E94EA301092AF0287
:102D100060E084E090E00E94EA3060E082E290E0CF
:102D20000E94EA3060E085E090E00E94EA3060E0D6
:102D300086E090E00E94EA306FEF87E090E00E942A
:102D4000EA3040E050E0BA0188E090E00E94FC30B8
:102D500060E08DE090E00E94EA3040E050E0BA018F
:102D600088E190E00E94FC3060E087E190E00E9402
:102D7000EA3040E050E0BA018CE190E00E94FC3083
:102D800060E070E080E290E00E94083140E050E0B6
:102D9000BA0188E190E00E94FC3080E00E94AE28F9
:102DA0000E94CC2840E050E0BA018FE090E00E9401
:102DB000FC3040E050E0BA0183E190E00C94FC303C
:102DC0008091AE0281111092AE020895809590918B
:102DD000AD0289238093AD0208959091AD02809158
:102DE000AC02892B2091AB02982F922B90934F022B
:102DF0008091AE02882389F0892B80934F02E1E510
:102E0000F2E097E080E0915029F021912223D9F35C
:102E10008F5FF9CF81110E94E016E091F102F091ED
:102E2000F202309731F00280F381E02D8FE492E0DE
:102E30000994089580E090E00E942E2380E090E0C5
:102E40000E9418231092AC021092AB020C94ED1663
:102E50008091A90290917802891719F08F5F87708D
:102E6000FBCF08950F931F93CF93DF938091770249
:102E700082958F7009F05DC080917402882309F4F7
:102E800058C08091A90210917802609172027091ED
:102E90007302C0917502D091760291E06F3F09F004
:102EA00090E0292F06E0811709F443C0209721F014
:102EB0007F3F21F030E003C031E001C0322F90E0CD
:102EC00030FD34C0089FF001099FF00D1124DF018F
:102ED000A758BD4F11963C911197371327C03C91CD
:102EE000361324C012963C91129731111FC01396CD
:102EF0004D915C9114974C1B5D0B483C5105B0F40F
:102F0000809177028F70806180937702E258FD4F45
:102F100080818F708061808382E792E00E94050E3D
:102F2000DF91CF911F910F910C9428170196877014
:102F3000BACFDF91CF911F910F910895CF92DF9279
:102F4000FF920F931F93CF93DF936C0100911403B3
:102F50008091AF02082BC7E0D0E010E0C8010C2E32
:102F600002C0959587950A94E2F780FD04C02197E9
:102F7000A8F7F12C09C0FC2EB6018C2F0E94312439
:102F80000E94CF14019799F38F2DDF91CF911F915C
:102F90000F91FF90DF90CF900895CF93DF93EC01D6
:102FA0000E949E17BE010E9431240E94CF14DF911F
:102FB000CF910895FC01808191810E94CD17292F26
:102FC0002F70E92FE295EF704E2F50E0FA01329703
:102FD000EE30F105B8F4EB58FF4F0C943E31803FD2
:102FE00099F018F4883E70F40FC0843F59F40CC077
:102FF000883E50F0813F31F407C0822F8695869538
:103000008695089580E0089581E008959F92AF929B
:10301000BF92CF92DF92EF92FF920F931F93CF93C5
:10302000DF93CDB7DEB761970FB6F894DEBF0FBE62
:10303000CDBF8C0185E0F801DE011D9601900D9257
:103040008A95E1F7F801E280909172026091730233
:1030500040917502509176024115510531F06F3F54
:1030600031F481E09F3F19F403C081E001C080E0AA
:10307000F82FF1709F2E80FD1AC1F8013081218157
:10308000C380D48082E7A82E82E0B82EF09074022C
:10309000F601E41BF50BFF2009F4C6C0809177020E
:1030A000E83CF10508F091C0482F407F09F050C07E
:1030B000621311C093130FC0FE2CE1100CC08F706F
:1030C000806180937702C5010E94050E809177028E
:1030D000F801858329C1CD2831F02F3F31F481E0FB
:1030E0003F3F19F403C081E001C080E080FD03C0D0
:1030F00081E08E2502C080E090E0F82FF170FF2E75
:1031000080FF1CC08091A9024091780256E084178C
:1031100009F4E8C090E0589FF001599FF00D112488
:10312000E758FD4F6181261306C06081631303C019
:103130006281E61203C001968770E9CFFE2CEE2073
:1031400009F4F2C08091770281608093770249C0D0
:10315000621306C0931304C0E11002C0F80186C0D8
:10316000C8010E94DA17882351F1EE2041F1209125
:103170007702822F82958F7090E0029774F0809191
:1031800072029091730298878F831986DB86CA86B4
:103190002C87CE0107960E94050E86E0F801A2E773
:1031A000B2E001900D928A95E1F70E9432170AC0B1
:1031B0006217C9F0C8010E94DA1781111EC0C80148
:1031C0000E94050EFF24F394AFC0482F407F81F783
:1031D00082E792E00E94050E86E0F50111928A9541
:1031E000E9F7F12CA1C09313E5CFE110E3CFF8018B
:1031F0008583C8010E94050E54C0EE2001F3209182
:103200007702822F82958F7090E0029734F280913E
:103210007202909173029A8389831B82DD82CC8231
:103220002E83CE010196B7CFE83CF105D0F5FE2CF8
:10323000EE2029F2621327C0931325C02091770254
:1032400020FD18C0822F82958F70482F50E04115C5
:10325000510581F0F80125834F30510541F08F5F12
:10326000982F9295907F822F8F70892B8583C8012C
:103270000E94050E86E0F801A2E7B2E001900D92EF
:103280008A95E1F751C0C8010E94DA17811185CFF4
:1032900080917702816080937702C8010E94050EB9
:1032A00043C086E0F50111928A95E9F73DC0EE2012
:1032B00009F485CFC8010E94DA17F82E882309F493
:1032C0007ECF86E0F801A2E7B2E001900D928A95E8
:1032D000E1F780917202909173020E94CD170E94D3
:1032E000321722C03D872E878D859E850E94CD177F
:1032F000292F22952F70223028F49F7039F08111E8
:1033000005C00BC0243028F49F7049F4805E8830DB
:1033100020F0C8010E94050E9F2CF92C05C0F80171
:103320009581907F99F7F9CF8F2D61960FB6F8941C
:10333000DEBF0FBECDBFDF91CF911F910F91FF90E8
:10334000EF90DF90CF90BF90AF909F90089527E0CF
:10335000929F800D1124682F669566956695982F2B
:10336000977083E0689FB001112440E050E080E056
:10337000FB01E40FF51FE95AFD4F208130E0092ED3
:1033800002C0369527950A94E2F721703327042E60
:1033900001C0220F0A94EAF7822B4F5F5F4F433040
:1033A000510531F7089527E0929F800D1124E82FF1
:1033B000E695E695E695877051E001C0550F8A9530
:1033C000EAF783E0E89FF0011124E95AFD4F20E07D
:1033D00030E070E04081CB01022E02C096958795C7
:1033E0000A94E2F78170819584278523842781934D
:1033F0002F5F3F4F2330310569F708958093140301
:103400000C941A1721E030E001C0220F8A95EAF7E8
:1034100020958091140382230C94FE192091AA0216
:10342000809582238093AA02982F977099F430E0B8
:10343000482F082E000C550B2417350759F0909192
:10344000130292FD07C08595859585950E94021A05
:103450001092AA020895CF93C0911302C2FB99273C
:1034600090F9981799F080FBC2F9C093130260910C
:10347000120284E090E00E94EA306C2F82E290E039
:103480000E94EA3082E0CF910C940E1ACF910895F9
:1034900021E030E001C0220F8A95EAF78091140301
:1034A000822B0C94FE198093AF020C941A17109281
:1034B000AD0286E0E1E5F2E0DF011D928A95E9F7D1
:1034C0000C941A17882341F080959091AC028923BF
:1034D0008093AC020C94ED160895882339F09091F6
:1034E000AC02892B8093AC020C94ED1608958823CE
:1034F00021F00E94E6160C94ED160895882339F009
:103500009091AD02892B8093AD020C94ED16089535
:103510001F93CF93DF93182F893319F0C0E0D0E0C9
:1035200002C0C0E5D0E0812F0E94562C209741F0C8
:103530008FE99FE00197F1F700C000002197F6CFD7
:10354000812FDF91CF911F910C94FF2B80E0089584
:10355000AF92BF92CF92DF92EF92FF920F931F93A1
:10356000CF93DF937C015B016A018091E5028A3091
:1035700018F001E010E002C00AE010E0C1E0D0E085
:10358000F894B501C701F60109957894811115C029
:1035900021960C171D0794F0CC9F9001CD9F300D04
:1035A000300D112480E090E045E34A95F1F70000EA
:1035B000019682179307C1F7E3CF81E0DF91CF91A6
:1035C0001F910F91FF90EF90DF90CF90BF90AF9041
:1035D0000895CF93DF93CDB7DEB728970FB6F89451
:1035E000DEBF0FBECDBF85E0E9E2F5E0DE0111965A
:1035F00001900D928A95E1F780912605909127051B
:10360000A09128058E839F83A88728854091E10299
:103610005091E2026091E3027091E4023FB7F894A6
:103620008091F6029091F702A091F802B091F90210
:103630003FBF841B950BA60BB70B84369105A105E4
:10364000B10510F4222329F18091490190914A019A
:1036500083539D4F4091480150E04930510510F08F
:1036600048E050E0BE016F5F7F4F0E94653185E00A
:1036700090E00E940130892B11F080E00DC00E9483
:10368000B0226093E1027093E2028093E302909390
:10369000E4021092280581E028960FB6F894DEBF68
:1036A0000FBECDBFDF91CF9108957F928F929F92F1
:1036B000AF92BF92CF92DF92EF92FF920F931F9340
:1036C000CF93DF931F92CDB7DEB7762E4A01590113
:1036D0006801082F880F110BC8010E940130892B47
:1036E00009F07EC08AE0809FF001819FF00D1124D7
:1036F000EC5EFE4F458150E04115510511F041E06F
:1037000050E08AE0809FF001819FF00D1124EC5E73
:10371000FE4F6681778163537D4FCE0101960E94F3
:103720006531F40140815181628173812FB7F89432
:103730008091F6029091F702A091F802B091F902FF
:103740002FBF841B950BA60BB70B84369105A105E3
:10375000B10540F4B701C6010E94AE2499818917D2
:1037600009F440C0072D770C110BC8010E940130ED
:10377000892B09F5E114F10401F18AE0809FF00141
:10378000819FF00D1124EC5EFE4F458150E0E41660
:10379000F50608F4A7018AE0809FF001819FF00DF3
:1037A0001124EC5EFE4F6681778163537D4FC50126
:1037B0000E94653102C010E001C011E0B701C601EE
:1037C0000E94AE2491E02981281390E0192381F012
:1037D0000E94B022F401608371838283938308C0C6
:1037E00010E001C011E0A701B601C5010E946531DA
:1037F000812F0F90DF91CF911F910F91FF90EF904C
:10380000DF90CF90BF90AF909F908F907F90089562
:10381000CF92DF92EF92FF920F931F93CF93DF939C
:103820001F92CDB7DEB7EE24E394F12C04ED12E045
:103830009E012F5F3F4F45EC52E063E082E00E9423
:10384000551BC82E8823C9F100910902802F90E0F2
:103850009C01235F3D4F79011981F9018081181B7B
:10386000D12E80E01D1484F4DA94F70180818F5FFB
:103870008083011102C08BE403C0013019F482E59A
:103880000E94881A81E0EECF912F17FD90E0191B5E
:10389000112381F01F5FF701808181508083011126
:1038A00002C08EE403C0013019F481E50E94881A39
:1038B00081E0EECF81110E9458168C2D0F90DF9180
:1038C000CF911F910F91FF90EF90DF90CF900895CF
:1038D000CF92DF92EF92FF920F931F93CF93DF93DC
:1038E00000D000D01F92CDB7DEB76B0185E0E82E87
:1038F000F12C0EEC12E09E012F5F3F4F41EC52E0A5
:1039000061E080E00E94551B882349F095E0FE01AC
:103910003196ACEBB2E001900D929A95E1F795E00B
:10392000ECEBF2E0D60101900D929A95E1F70F9041
:103930000F900F900F900F90DF91CF911F910F91EB
:10394000FF90EF90DF90CF9008958091BB0281119E
:1039500018C08091D80080618093D8008AE18A9550
:10396000F1F700C08091D90080FD02C082E001C063
:1039700081E08093BB02823021F40E942E201092BD
:103980000A0381E09091BB02913009F080E0089534
:103990000F931F930E94A51C882321F01F910F9164
:1039A0000C94B0220E94B0220091F8011091F9010C
:1039B0002091FA013091FB01600F711F821F931F4C
:1039C0001F910F910895CF93DF9300D000D0CDB712
:1039D000DEB74091C9025091CA026091CB0270914A
:1039E000CC022FB7F8948091F6029091F702A09143
:1039F000F802B091F9022FBF841B950BA60BB70BF1
:103A000084369105A105B10580F10E94C81CDC0136
:103A1000CB010296A11DB11D89839A83AB83BC8320
:103A200080913F019091400183539D4F40913E0111
:103A300050E04530510510F044E050E0BE016F5FAA
:103A40007F4F0E94653184E090E00E940130892B15
:103A500011F080E00BC00E94B0226093C902709305
:103A6000CA028093CB029093CC0281E00F900F901A
:103A70000F900F90DF91CF910895F894E82FE29581
:103A8000EF70F0E031A1282F2F7081E090E001C0AD
:103A9000880F2A95EAF7982F9095932391A392A1E6
:103AA000892B82A3789408959091120292FF0DC001
:103AB000282F2871283019F4877F846006C0282FAA
:103AC0002471243011F48B7F886093FF0DC0282F60
:103AD0002871283119F4877E846106C0282F24714B
:103AE000243111F48B7E88612091130220FF0DC0D8
:103AF000382F3871383019F4877F816006C0382F2D
:103B00003171313011F48E7F886021FF0DC0282F74
:103B10002871283119F4877E816106C0282F217110
:103B2000213111F48E7E886194FD877E08950E9474
:103B3000A51C81110C94BC220E94C81CCB010895C5
:103B40005F926F927F928F929F92AF92BF92CF922D
:103B5000DF92EF92FF920F931F93CF93DF93CDB736
:103B6000DEB72F970FB6F894DEBF0FBECDBF9E0114
:103B70002F5F3F4F79018AE0D9011D928A95E9F7BD
:103B800005E711E069018AE7682E81E0782EAA2412
:103B9000A394B12C26E8822E21E0922EF801808198
:103BA0008F3F09F440C0F894E82FE295EF70F0E001
:103BB00021A18F70A50102C0440F551F8A95E2F71D
:103BC000CA01922F982B91A392A18095892382A359
:103BD000789400C0EFE7F1E0512C31E021912F3FC4
:103BE00089F0A22FA295AF70B0E090968C9190E0F2
:103BF0002F7002C0959587952A95E2F780FD02C047
:103C0000832F01C080E0582A330F8E169F0631F7AC
:103C1000D8018C918F3F11F00E943D1DB0EABA95FA
:103C2000F1F7F60150820F5F1F4FFFEFCF1ADF0A47
:103C30006016710609F0B2CF4AE050E0B7018CEF90
:103C400091E00E9458318C01892B41F08AE0F70104
:103C5000ACEFB1E001900D928A95E1F7F090070288
:103C60000115110549F081E08093B3020E94BC2246
:103C70009093B2028093B1028091B3028823B9F08D
:103C80008091B1029091B2020E94A122059778F032
:103C9000ACEFB1E0EF2DF0E0EC5BFD4F81E092E0A6
:103CA0002D9121938A179B07D9F71092B302011522
:103CB000110509F013C10E94A51CE09107029E01A5
:103CC000255F3F4F7901882309F475C085E0D9014C
:103CD0001D928A95E9F70E2F10E00C5B1D4F809125
:103CE000E5028A3048F448E65CE1B701C8010E9469
:103CF000A81A8823B1F10AC08091B4029091B5024C
:103D00000E94A122843F914070F73CC048E05CE1F2
:103D1000B701C8010E94A81A882319F143EE5CE19B
:103D2000B701C8010E94A81A8823D9F049EE5AE1C8
:103D3000B701C8010E94A81A882399F01092E502E1
:103D40008091060290E045E050E0B7018C5B9D4F0A
:103D50000E94583121E02093BA02892BF1F400E04F
:103D6000BFC08091E5028F3F19F08F5F8093E5021D
:103D70008091E5028A3020F30E94BC229093B50224
:103D80008093B4028091BA02882349F385E0F70159
:103D900011928A95E9F71092BA02A0910602B0E05A
:103DA000AC5BBD4F85E0FE013B9601900D928A957C
:103DB000E1F701E095C0F0E0EC5BFD4FF89485E0A1
:103DC000AEECB2E001900D928A95E1F765E070E00B
:103DD0008EEC92E00E94AE248093CD027894F89409
:103DE000E0911002F0E0E35FFD4F80818B878093CC
:103DF000D40261E070E0C7010E94AE248093D30238
:103E00007894F894C090D502D090D602E090D70272
:103E1000F090D8028091B6029091B702A091B802BA
:103E2000B091B902C816D906EA06FB06D1F0C092D5
:103E3000B602D092B702E092B802F092B9020E94A4
:103E4000A51C81110EC00E94B022C61AD70AE80A2A
:103E5000F90AC092F801D092F901E092FA01F092C9
:103E6000FB017894F8948091E0028823A9F180FF07
:103E700010C08091D90280FF0AC0909129059160FD
:103E80009093290560E086950E94802B02C00E94D5
:103E90002D2A8091E00281FF09C020E04091DC02E0
:103EA0006091DB028091DA020E94782A8091E00220
:103EB00082FF09C08091DF02882319F00E94012946
:103EC00002C00E94FA288091E00283FF03C081E0D3
:103ED000809323051092E002789402C001E010E084
:103EE000802F2F960FB6F894DEBF0FBECDBFDF91A7
:103EF000CF911F910F91FF90EF90DF90CF90BF90E7
:103F0000AF909F908F907F906F905F9008950895ED
:103F100008958091FF0208958093FA027093FC0245
:103F20006093FB0280910A038430F9F48093E900E6
:103F30008FEF9091E800815095FD06C095ED9A9520
:103F4000F1F700008111F5CF8091E80085FF0DC0E9
:103F500040E050E063E070E08AEF92E00E94AB2521
:103F60008091E8008E778093E8000895BC0184E09A
:103F70000C948C1FBC0183E00C948C1FCF93DF93B7
:103F800021E02093E9002FEF3091E800215035FD2A
:103F900006C035ED3A95F1F700002111F5CF2091DB
:103FA000E80025FF14C0EC0140E050E068E070E05C
:103FB0000E94AB258091E8008E778093E80088E02E
:103FC000FE01A0E0B3E001900D928A95E1F7DF9148
:103FD000CF9108951F920F920FB60F9211242F9335
:103FE0003F934F935F936F937F938F939F93AF9381
:103FF000BF93CF93DF93EF93FF93C091E900CF700E
:104000008091EC00D82FD17080FDD0E81092E900AB
:104010008091F000877F8093F00078940E94D725EC
:104020001092E9008091F00088608093F000CD2B21
:10403000CF70C093E900FF91EF91DF91CF91BF91D5
:10404000AF919F918F917F916F915F914F913F9130
:104050002F910F900FBE0F901F901895E8EDF0E094
:1040600080818E7F80831092E2001092DA0010929D
:10407000E100A0EEB0E08C9181608C9380818F771D
:10408000808319BCA7EDB0E08C918E7F8C938081EA
:104090008F7E80831092FD0208952091E40030917C
:1040A000E50095E64091EC00842F817040FF23C02D
:1040B0008091E80080FD1DC080910A03882399F05B
:1040C000853099F08091EB0085FD11C04091E400AE
:1040D0005091E5002417350729F3915011F09A010A
:1040E000E1CF84E0089582E0089583E0089581E0BF
:1040F000089580E008954091E80042FFDDCF0895E3
:1041000080910C0387FF11C08091E80082FD05C0FB
:1041100080910A038111F8CF11C08091E8008B775C
:104120000BC080910A03882349F08091E80080FF4A
:10413000F8CF8091E8008E778093E8000895982F5B
:10414000973068F59093E900981739F07091EC007A
:104150002091ED005091F00003C0242F762F50E005
:1041600021FD02C09F5FECCF3091EB003E7F30938A
:10417000EB003091ED003D7F3093ED003091EB008E
:1041800031603093EB007093EC002093ED0050937E
:10419000F0002091EE0027FDE5CF80E008958F70BC
:1041A0008093E90081E00895CF92DF92EF92FF9231
:1041B0000F931F93CF93DF93C8EDD0E088818F7E5C
:1041C0008883E7EDF0E080818160808384E082BFB6
:1041D00081E08093FD0288818E7F888302EE10E06B
:1041E000F80110821092DA0081EEC82ED12CF6016F
:1041F000108288818F77888388818068888388810E
:104200008F7D888319BC10920A0310920B031092C1
:1042100009031092080390EEE92EF12CF70180813A
:104220008B7F808388818160888342E060E080E0CA
:104230000E949F20F60180818E7F8083F80180811B
:1042400081608083808188608083F70180818E7F98
:104250008083888180618883DF91CF911F910F9146
:10426000FF90EF90DF90CF9008951F920F920FB6BE
:104270000F9211242F933F934F935F936F937F93EC
:104280008F939F93AF93BF93EF93FF938091E10040
:1042900082FF09C08091E20082FF05C08091E100A9
:1042A0008B7F8093E1008091DA0080FF2AC08091AB
:1042B000D80080FF26C08091DA008E7F8093DA00DC
:1042C0008091D90080FF18C080E189BD82E189BD5D
:1042D00009B400FEFDCF81E080930A038091FD02C6
:1042E00081110FC00E942E200E94D4208091E200F4
:1042F00084608093E20005C019BC10920A031092FA
:10430000FD028091E10080FF17C08091E20080FFF4
:1043100013C08091E2008E7F8093E2008091E200E2
:1043200080618093E2008091D80080628093D80001
:1043300019BC85E080930A038091E10084FF30C0BE
:104340008091E20084FF2CC080E189BD82E189BDBB
:1043500009B400FEFDCF8091D8008F7D8093D800F6
:104360008091E1008F7E8093E1008091E2008F7E5A
:104370008093E2008091E20081608093E20080916E
:104380000B03882311F084E007C08091E30087FDD0
:1043900002C081E001C083E080930A0380910A0398
:1043A0008091E10083FF27C08091E20083FF23C05A
:1043B0008091E100877F8093E10082E080930A038F
:1043C00010920B038091E1008E7F8093E100809139
:1043D000E2008E7F8093E2008091E2008061809312
:1043E000E20042E060E080E00E949F208091F000C7
:1043F00088608093F000FF91EF91BF91AF919F9102
:104400008F917F916F915F914F913F912F910F907D
:104410000FBE0F901F901895209112033091130337
:104420002617370748F06115710539F42091E80027
:104430002E772093E80001C0B901FC0120E061154E
:10444000710579F180910A038823F1F18530F1F14A
:104450008091E80083FD3CC08091E80082FD2EC081
:104460008091E80080FFEBCF2091F3008091F20073
:1044700090E0922B6115710551F08830910538F468
:1044800021912093F100615071090196F3CF21E051
:10449000089709F020E08091E8008E778093E8008B
:1044A000CECF2111CFCF0AC080910A03882361F0BB
:1044B000853061F08091E80083FD0AC08091E800BA
:1044C00082FFF2CF80E0089582E0089583E00895AE
:1044D00081E0089587E797E79093010880930008AB
:1044E0009AE088E10FB6F894A895809360000FBE1B
:1044F00090936000FFCF78941F920F920FB60F92A7
:1045000011248F939F93AF93BF938091F602909164
:10451000F702A091F802B091F9020196A11DB11D18
:104520008093F6029093F702A093F802B093F902F9
:10453000BF91AF919F918F910F900FBE0F901F90E1
:1045400018959C014FB7F8948091F6029091F7026C
:10455000A091F802B091F9024FBF821B930B08950E
:104560002FB7F8946091F6027091F7028091F802EB
:104570009091F9022FBF08952FB7F8948091F60219
:104580009091F702A091F802B091F9022FBF08951F
:104590001F920F920FB60F9211248F939F93AF9398
:1045A000BF938091F502811113C08091F602909122
:1045B000F702A091F802B091F9024196A11DB11D38
:1045C0008093F6029093F702A093F802B093F90259
:1045D000BF91AF919F918F910F900FBE0F901F9041
:1045E00018959C012A5F3F4FFC014281461301C090
:1045F0001282019682179307B9F708959C01FC0176
:1046000032969FEF80E04191461789F09F3F19F461
:10461000411101C0982F8F5F8630A9F79F3F39F075
:10462000F901E90FF11D97FDFA9562830895089548
:104630002091F3023091F4022817390771F090931A
:10464000F4028093F302E091F102F091F2023097CC
:1046500021F00084F185E02D099408952091EF0266
:104660003091F0022817390771F09093F00280938F
:10467000EF02E091F102F091F202309721F0068012
:10468000F781E02D099408950E94A51C882351F01C
:10469000E091F102F091F202309721F00190F08167
:1046A000E02D099480E008950F931F93CF93DF933B
:1046B000C42FD22FFC0182818823C9F04093EE02DF
:1046C0000E94BC229093ED028093EC0280E28C0F5A
:1046D000883008F057C0C77081E001C0880FCA95C4
:1046E000EAF7DF91CF911F910F910C947E1A809180
:1046F000EE02481330C08091EC029091ED020E94CE
:10470000A122883C910538F510E21D0FCD17B9F0B4
:1047100080E28C0F883040F4C77081E001C0880FC0
:10472000CA95EAF70E94771A183028F581E09D2F84
:10473000977001C0880F9A95EAF70E947E1A802F21
:104740000E94881A1830F0F4D77081E001C0880FF9
:10475000DA95EAF70AC080E28C0F883098F4C770C7
:1047600081E001C0880FCA95EAF7DF91CF911F91D0
:104770000F910C94771A802FDF91CF911F910F9199
:104780000C94881ADF91CF911F910F910895CF93C8
:10479000DF93C7E5D2E060E0CE010E94EA302196C7
:1047A000C11584E0D807B9F7DF91CF910895CF9272
:1047B000DF92EF92FF920F931F93CF93DF93C0E0AE
:1047C000D0E08E0104571F4F6E018EE0C80ED11C41
:1047D000FE01E756FD4FE590F4906F2DCE018796D0
:1047E0000E94EA306E2DCE0188960E94EA30229611
:1047F000CC15DD0569F70C171D0731F7E80100330B
:104800001240F9F6DF91CF911F910F91FF90EF9039
:10481000DF90CF9008950F931F93CF93DF93C42F12
:10482000D0E0CC0FDD1F2EE0629FC00DD11D112402
:104830003CE8839FC00DD11D1124CE0187960E94B4
:10484000D630082F10E0102F0027CE0188960E9446
:10485000D6309801282BC901DF91CF911F910F917C
:104860000895462F843038F47A3028F4673018F4ED
:10487000672F0C940B2480E090E008958091EB0268
:104880009091EA02882389F0992369F062E070E050
:1048900087E992E00E948225892B19F08091EA0233
:1048A00008951092EA029091EA0281E08927089522
:1048B0008091EB028823F9F00E94B022DC01CB0149
:1048C000805A9541AF4FBF4F8093E6029093E70225
:1048D000A093E802B093E9028091EA0281110BC033
:1048E00062E070E085E992E00E948225892B19F44C
:1048F00081E08093EA028091EA020895CF93E82F45
:1049000020911E0530911F05285133404091150319
:10491000642F70E0C9010E94B930481B842FEE2338
:1049200051F066E00E941E31C82FC150A8F080E20D
:104930000E94C524FACFA901480F511D41155240CC
:1049400018F080E020E030E0280F311D285E3C4F59
:1049500030931F0520931E05CF910895FC01680F29
:10496000791F8FEF91E3E617F70771F02191822706
:1049700028E030E087FF03C0880F892701C0880F37
:1049800021503109B9F7EFCF0895CF93DF938A30E3
:1049900011F481E003C08D3029F480E0DF91CF91E4
:1049A0000C947E24682F80911E0590911F0526E0AF
:1049B000FC01A8E1B5E001900D922A95E1F7603E77
:1049C00030F026E0FC0111922A95E9F70AC0F6E0E2
:1049D0006F9FB0011124685F794F46E050E00E945C
:1049E000CD30C0911E05D0911F0546E050E0BE01BC
:1049F00088E195E00E945831892B49F19E012851A8
:104A00003340A90185E0569547958A95E1F781E005
:104A100090E0BC0102C0660F771F4A95E2F7409113
:104A2000160350911703462B572B2B5F3F4F65E022
:104A3000369527956A95E1F702C0880F991F2A9548
:104A4000E2F7842B952B90931703809316039E0116
:104A50002251334040911503642F70E0C9010E9438
:104A6000B930481B463010F4240F311D211582E067
:104A7000380710F020E030E0285E3C4F30931F05EF
:104A800020931E05DF91CF910895CF93DF93EC0122
:104A9000FE018491882321F00E94C5242196F8CF3D
:104AA000DF91CF9108950F931F93CF93DF93EC0184
:104AB000FC0101900020E9F78F0101501109C01796
:104AC000D10720F489910E94C524F9CFDF91CF91BD
:104AD0001F910F91089584E00E946D1A85E30E9452
:104AE000562C85E30E94FF2B84E00C94621A80917F
:104AF0001403982F9670963011F4886001C0877F58
:104B00000C94FE19EF92FF920F931F93CF93DF93B4
:104B1000EC017B0164E670E088E70E948E2D8C0139
:104B2000EC0EFD1ECE15DF0561F017FD0AC0FE017B
:104B3000849164E670E00E940F2E8C012196892BEF
:104B400089F30E94932EC801DF91CF911F910F919D
:104B5000FF90EF900895EF92FF920F931F93CF93E2
:104B6000DF937C018B010E944D20811119C0E70168
:104B700001151105A1F08091E80085FD0AC0809122
:104B8000E8008E778093E8000E944D20882381F30F
:104B900007C089918093F10001501109E9CF80E0AD
:104BA000DF91CF911F910F91FF90EF9008951F9388
:104BB000CF93DF93CDB7DEB7AA970FB6F894DEBFD9
:104BC0000FBECDBFECE0F3E084E193E02091F10073
:104BD00021938E179F07D1F780910D03833009F43D
:104BE00063C030F4813071F0823009F49DC0B4C0EC
:104BF0008A3009F489C08B3009F46EC0893009F01D
:104C0000ABC020C080910C03813A09F0A5C080910F
:104C1000E800877F8093E800809110039091110352
:104C2000892B21F468E080E093E003C060E080E03D
:104C300090E070E00E940C228091E8008B778093D6
:104C4000E8008AC080910C03813209F085C0809110
:104C5000100390911103009719F0029709F07CC09E
:104C60008091E800877F8093E8008091E80082FDD2
:104C700005C080910A038111F8CF6EC02091F30026
:104C80008091F20090E0922B029731F48091F10034
:104C9000813011F0863021F48091F1008093FF0281
:104CA0008091E8008B7754C080910C03813A09F021
:104CB00053C08091100390911103892B09F04CC0CF
:104CC0008091E800877F8093E8008091E80080FF72
:104CD000FCCF8091500137C080910C038132E1F507
:104CE0008091100390911103892BB1F58091E80018
:104CF000877F8093E8000E94802080910E0380933C
:104D000050010E94571A28C080910C03813221F56E
:104D10008091E800877F8093E8000E948020809146
:104D20000F038093FE0218C080910C03813AA1F416
:104D30008091E800877F8093E8008091E80080FF01
:104D4000FCCF8091FE028093F1008091E8008E7785
:104D50008093E8000E9480208091E80083FFDFC1FB
:104D600080910C0390910D03492F50E04A3051057A
:104D700008F0D5C1FA01ED57FF4F0C943E31803851
:104D800021F0823809F0CBC108C0809108039091CE
:104D90000903992389F082600FC0809110038F70FE
:104DA000873008F0BCC18093E9008091EB0085FB5F
:104DB000882780F91092E9009091E800977F9093FE
:104DC000E8008093F1001092F10070C1282F2D7F30
:104DD00009F0A5C1882319F0823061F0A0C180914B
:104DE0000E03813009F09BC1933009F080E080937D
:104DF00009032EC080910E0381112AC080911003F7
:104E00008F702FEF280F263008F089C18093E900BA
:104E10002091EB0020FF1CC0933021F48091EB0027
:104E2000806214C09091EB0090619093EB0021E0C0
:104E300030E0A90102C0440F551F8A95E2F7409364
:104E4000EA001092EA008091EB0088608093EB000A
:104E50001092E9008091E800877F8093E8000E942B
:104E600080205DC181115BC110910E031F7780917D
:104E7000E3008078812B8093E3008091E800877FB6
:104E80008093E8000E9480208091E80080FFFCCFA2
:104E90008091E30080688093E300111102C082E0FA
:104EA00001C083E080930A033AC18058823008F041
:104EB00036C120910E0330910F032C3D53E035078E
:104EC00079F583E08A838AE289834FB7F894DE011B
:104ED000139620E03EE051E2E32FF0E050935700BC
:104EE000E49120FF03C0E295EF703F5FEF708E2FDB
:104EF00090E0EA3010F0C79601C0C0968D939D9364
:104F00002F5F243149F74FBF8091E800877F80935E
:104F1000E8006AE270E0CE0101960E940C22B4C063
:104F20008091100390911103432F55274330510571
:104F3000A9F068F44130510509F400C1423051052F
:104F400009F0EDC08BE590E0EDE5F5E04BC04132B6
:104F5000510529F14232510589F1E1C0C901992772
:104F600081309105A1F058F0029709F0D8C0EAEC21
:104F7000F5E0E4918E2F90E0EAECF5E030C0E4E05B
:104F8000F6E0E4918E2F90E0E4E0F6E028C0EEEE4B
:104F9000F5E0E4918E2F90E0EEEEF5E020C0833056
:104FA000910508F0BCC0880F991FFC01E652FE4F26
:104FB0000190F081E02D89E090E014C083309105EC
:104FC00008F0ADC0FC01EE0FFF1FEC52FE4F019048
:104FD000F081E02DDC01AF52BE4F8C9190E0009744
:104FE00009F49DC02091E800277F2093E8002091DC
:104FF0001203309113032817390708F4C90140E060
:10500000009789F120910A03222309F43DC025303D
:10501000D9F12091E80023FD37C02091E80022FD5E
:105020002FC02091E80020FFEBCF4091F3002091AA
:10503000F20030E0342B009759F02830310540F46D
:1050400044914093F100319601972F5F3F4FF3CF8A
:1050500041E02830310509F040E02091E8002E774A
:105060002093E800CDCF4111CDCF0AC080910A0333
:10507000882351F0853041F08091E80083FD04C021
:105080008091E80082FFF2CF8091E8008B778093D7
:10509000E80045C0803809F042C08091E800877F71
:1050A0008093E80080910B038093F1008091E800E9
:1050B0008E77D3CE811133C080910E0390910F0370
:1050C0009927029764F58091E800877F8093E80034
:1050D00010910E0310930B030E948020111106C043
:1050E0008091E30087FD02C081E001C084E08093ED
:1050F0000A0342E061EC81E00E949F2042E261EC01
:1051000084E00E949F2042E261EC82E00E949F20A6
:1051100042E260EC83E00E949F2080910A0380912C
:10512000E80083FF10C08091E800877F8093E8004B
:105130008091EB0080628093EB0005C082E190E0FB
:10514000E8EBF5E04FCFAA960FB6F894DEBF0FBE9E
:10515000CDBFDF91CF911F9108950895CF93C82FB0
:10516000811102C06FEF01C061E283E290E00E9412
:10517000EA30C11102C06FEF01C062E184E290E049
:105180000E94EA30C11102C06FEF01C064E285E203
:1051900090E0CF910C94EA3080E00E94AE2860E06D
:1051A00086E290E00E94EA300E94D7230E94C72343
:1051B00081E00C94AE2883E290E00E94D6308132E8
:1051C00081F484E290E00E94D630823151F485E28D
:1051D00090E00E94D63091E0843209F090E0892F6F
:1051E00001C080E081700895882311F0FA0101C0A8
:1051F000FB010994E6E2F5E01182828184608283FA
:10520000089560912905669570E04BE050E081E5D6
:1052100091E00E944B31892B19F481E0809327059E
:105220000E94971D90932105809320058091280569
:10523000846080932805089530915D01809129054F
:1052400080FF16C0E0915C0163E0E69FF00111244D
:10525000E25DFA4F539A8BB1877F9BB198602FB76D
:10526000F894AF0163E0369F400D511D112414C026
:1052700080915E0190915F01891720F7E82FF0E09F
:10528000AF01440F551FE40FF51FE25DFA4F118285
:10529000108212828F5FF0CFE417F50789F0319109
:1052A00068E09BB9000000C037FF8BB9330F0000E6
:1052B00000C000C000C08BB900C06A9591F7ECCF68
:1052C0002FBF8FE594E00197F1F700C0000008952B
:1052D000FF920F931F93CF93DF93EC01F12C0FEF0D
:1052E00010E060916001F61608F580915E012F2DA7
:1052F00030E0280F311DC901880F991F280F391F71
:10530000225D3A4F40912C05493708F048E770E09C
:10531000C8010E942A31962F8C8160912B05F99E3D
:10532000800D11240E94F22CF394DBCF0E941C29E3
:105330009A818C8190FF02C08F5F01C081508C8365
:10534000DF91CF911F910F91FF90089590912905C2
:1053500090FF16C090915E0120915F01921770F44A
:10536000E92FF0E0DF01AA0FBB1FEA0FFB1FE25D90
:10537000FA4F8183608342839F5FF0CF0C941C2996
:1053800008950F931F93CF93DF9300D01F92CDB753
:10539000DEB78C018091EE0581110AC09E012F5F5E
:1053A0003F4F48E76FEF0E94F22C8A818093EE0511
:1053B000F8018481813051F028F0823061F440910D
:1053C000EE050AC08091EE0540E007C06091EE0551
:1053D00040E080E003C040E080E060E00E94A62959
:1053E000F801848190E0019663E070E00E942A3128
:1053F00084830F900F900F90DF91CF911F910F91A9
:1054000008950F931F93CF93DF9300D01F92CDB7D2
:10541000DEB78C018091290580FF13C040912C05D7
:10542000493708F048E79E012F5F3F4F60912B05F9
:10543000F80184810E94F22C4B8169818A810E944B
:10544000A629F80184818F5F84830F900F900F90BD
:10545000DF91CF911F910F910895E9E2F5E08081EE
:105460008E7F80830E94FA28E6E2F5E082818160E7
:1054700082832FEF80E792E0215080409040E1F757
:1054800000C000000C941C298091290580FF02C0F7
:105490008695089580E0089580912905282F269506
:1054A00030E02115310519F48170826005C0263184
:1054B000310524F081708A628093290580912C0542
:1054C000893718F088E780932C050895CF92DF92F2
:1054D000EF92FF926B017C010E944C2AB701A6015A
:1054E00088E090E0FF90EF90DF90CF900C94FC303C
:1054F000AF92BF92CF92DF92EF92FF920F931F93E2
:10550000CF93DF9300D01F92CDB7DEB7082FF62ED2
:10551000142FE22E8091290580FF80C0E82FE695A8
:10552000AE2FB0E0A052BE4F9C91909326058E7F87
:10553000823081F4493708F048E79E012F5F3F4FE2
:105540006F2D802F0E94F22C4B8169818A810E94ED
:10555000A62941C0923019F400912A053CC095302B
:10556000D9F39B30C1F5EB508E2F8170D82EE69584
:10557000F0E0E85BF44FA590B490C12CBB2460919F
:105580006001C61630F52C2D30E0A29EC001A39E0E
:10559000900DB29E900D112470E00E94B930802FC2
:1055A000D11002C0860F01C0861B90915E01290FA9
:1055B000311DA901440F551F240F351F225D3A4F9D
:1055C000412F193708F048E76F2D0E94F22CC39441
:1055D000D6CF0E941C2980912A05081308C080910B
:1055E0002B05F81204C080912C05181729F0809122
:1055F000280582608093280500932A05F0922B05E8
:1056000010932C05EE2051F06091290570912A0528
:1056100080912B0590912C050E94662A0F900F9087
:105620000F90DF91CF911F910F91FF90EF90DF903E
:10563000CF90BF90AF900895E9E2F5E0438121E17A
:10564000421B08F440E021E0628181810C94782AB9
:10565000E9E2F5E0438121E1420F08F44FEF21E058
:10566000628181810C94782AE9E2F5E0628121E18E
:10567000621B08F460E021E0438181810C94782A68
:10568000E9E2F5E0628121E1620F08F46FEF21E0C9
:10569000438181810C94782AE9E2F5E0818121E05F
:1056A0004381628188500C94782AE9E2F5E0818197
:1056B00021E043816281885F0C94782A80912D05D6
:1056C000882319F0815080932D05609129057091F0
:1056D0002A0580912B0590912C050C94662A8091C7
:1056E0002D05833018F48F5F80932D056091290577
:1056F00070912A0580912B0590912C050C94662AB7
:105700009091290590FF3BC09170811102C0926079
:1057100006C0863110F09A6202C0880F982B9093D1
:10572000290580912805816080932805662351F022
:105730006091290570912A0580912B0590912C0587
:105740000E94662A60912905669570E04BE050E062
:1057500081E591E00E944B31892B19F00E94FA28D3
:1057600002C00E94012981E08093230520E040913E
:105770002C0560912B0580912A050C94782A0895B8
:10578000809129058695815009F485E161E00C94AA
:10579000802B8091290586958F5F863108F081E006
:1057A00061E00C94802BCF93DF93C82FD62F0E94FB
:1057B000442A8C1730F08D1720F4DF91CF910C9490
:1057C000C92B61E08C2FDF91CF910C94802BE9E203
:1057D000F5E083E0808311828FEF828388E7838303
:1057E0001482A6E2B5E012968C911297836012960D
:1057F0008C9360817181828193810C94662A8823C5
:1058000009F453C0682F823869F40E94442381FF51
:105810004CC069E38FE492E00E94FE220E94ED16E4
:1058200069E30EC0833891F40E94442380FF3DC099
:1058300063E58FE492E00E94FE220E94ED1663E58C
:105840008FE492E00E94F1220C94ED16843869F402
:105850000E94442382FF29C067E48FE492E00E9403
:10586000FE220E94ED1667E4EBCF8CEF860F813AA3
:1058700038F380E2860F883048F4677081E001C019
:10588000880F6A95EAF70E94E616DECF8BE5860F51
:10589000833020F480E090E00C942E23685A673126
:1058A00020F480E090E00C9418230895CF9388238F
:1058B00009F496C0C82F8238B1F40E94442381FDB8
:1058C0008FC069E38FE492E00E94FE220E94ED16F1
:1058D0002FEF81EE94E0215080409040E1F700C02E
:1058E000000069E317C08338E1F40E94442380FD7F
:1058F00077C063E58FE492E00E94FE220E94ED16DD
:105900002FEF81EE94E0215080409040E1F700C0FD
:10591000000063E58FE492E00E94F122CF910C94A5
:10592000ED168438B1F40E94442382FD59C067E427
:105930008FE492E00E94FE220E94ED162FEF81EE8E
:1059400094E0215080409040E1F700C0000067E4FF
:10595000E1CF8CEF8C0F813A80F4E1E5F2E087E54E
:1059600092E02191C217A1F18E179F07D1F76C2FFA
:105970008FE492E00E94FE22D1CF80E28C0F88302B
:1059800068F4C77081E090E001C0880FCA95EAF71B
:105990009091AD02892B8093AD02C0CFEBE5EC0F67
:1059A000E33040F4F0E0E256FE4F808190E0CF918A
:1059B0000C942E23C85AC73198F4EC2FF0E0EE0F68
:1059C000FF1FEF55FE4F80819181CF910C941823DA
:1059D0006C2F8FE492E00E94F1220E94ED16C7CF57
:1059E000CF910895AF92BF92CF92DF92EF92FF9244
:1059F0000F931F93CF93DF93E82EF62EE901E42F48
:105A0000F0E0611106C0E35BF44FE4914E2F2E2FBE
:105A100071C0062F10E0E35BF44F4491F42FC42EC5
:105A2000D12C26E0829FC00111242FEF30E0B90174
:105A30000E94B9305BEA5603C001579F900D1124B4
:105A40008E0D911D8E0D911D582F550F580FD90198
:105A5000A01BB10BAC9DC001AD9D900DBC9D900DE8
:105A60001124E92FF59ED0011124AB2FBB2779011A
:105A7000EA1AFB0AEC9CD001ED9CB00DFC9CB00D29
:105A800011245901A51AB108A09E7001A19EF00C25
:105A9000B09EF00C1124EF2CFF242E193F092C9DF1
:105AA00080012D9D100D3C9D100D1124212F623081
:105AB000710591F048F461157105E1F061307105EF
:105AC000B9F4242F4B2F16C06430710569F040F0F3
:105AD0006630710579F00CC0242F492FE12F0AC0E0
